{
  "contractName": "LifeInsurance",
  "abi": [
    {
      "anonymous": false,
      "inputs": [
        {
          "indexed": true,
          "internalType": "address",
          "name": "userAddress",
          "type": "address"
        },
        {
          "indexed": false,
          "internalType": "string",
          "name": "category",
          "type": "string"
        },
        {
          "indexed": false,
          "internalType": "string",
          "name": "description",
          "type": "string"
        }
      ],
      "name": "DetailsSubmitted",
      "type": "event"
    },
    {
      "inputs": [
        {
          "internalType": "string",
          "name": "_insurancetype",
          "type": "string"
        },
        {
          "internalType": "string",
          "name": "_username",
          "type": "string"
        },
        {
          "internalType": "string",
          "name": "_policyId",
          "type": "string"
        },
        {
          "internalType": "uint256",
          "name": "_aadhaarNumber",
          "type": "uint256"
        },
        {
          "internalType": "string",
          "name": "_phoneNumber",
          "type": "string"
        }
      ],
      "name": "submitUserDetails",
      "outputs": [],
      "stateMutability": "nonpayable",
      "type": "function"
    },
    {
      "inputs": [
        {
          "internalType": "string",
          "name": "_nomineeName",
          "type": "string"
        },
        {
          "internalType": "uint256",
          "name": "_nomineeAadhaar",
          "type": "uint256"
        },
        {
          "internalType": "string",
          "name": "_nomineePhone",
          "type": "string"
        }
      ],
      "name": "submitNomineeDetails",
      "outputs": [],
      "stateMutability": "nonpayable",
      "type": "function"
    },
    {
      "inputs": [
        {
          "internalType": "string",
          "name": "_bankName",
          "type": "string"
        },
        {
          "internalType": "string",
          "name": "_accountNumber",
          "type": "string"
        },
        {
          "internalType": "string",
          "name": "_ifscCode",
          "type": "string"
        }
      ],
      "name": "submitBankDetails",
      "outputs": [],
      "stateMutability": "nonpayable",
      "type": "function"
    },
    {
      "inputs": [
        {
          "internalType": "string",
          "name": "_policyPhotoHash",
          "type": "string"
        },
        {
          "internalType": "string",
          "name": "_reportsHash",
          "type": "string"
        }
      ],
      "name": "submitCertificateDetails",
      "outputs": [],
      "stateMutability": "nonpayable",
      "type": "function"
    },
    {
      "inputs": [
        {
          "internalType": "string",
          "name": "_policyId",
          "type": "string"
        },
        {
          "internalType": "string",
          "name": "_fullName",
          "type": "string"
        },
        {
          "internalType": "string",
          "name": "_contactInfo",
          "type": "string"
        },
        {
          "internalType": "string",
          "name": "_userPhotoHash",
          "type": "string"
        }
      ],
      "name": "submitHospitalDetails",
      "outputs": [],
      "stateMutability": "nonpayable",
      "type": "function"
    },
    {
      "inputs": [
        {
          "internalType": "string",
          "name": "_policyId",
          "type": "string"
        },
        {
          "internalType": "string",
          "name": "_fullName",
          "type": "string"
        },
        {
          "internalType": "string",
          "name": "_contactInfo",
          "type": "string"
        },
        {
          "internalType": "string",
          "name": "_userPhotoHash",
          "type": "string"
        }
      ],
      "name": "submitPoliceDetails",
      "outputs": [],
      "stateMutability": "nonpayable",
      "type": "function"
    },
    {
      "inputs": [
        {
          "internalType": "address",
          "name": "userAddress",
          "type": "address"
        }
      ],
      "name": "getUserDetails",
      "outputs": [
        {
          "components": [
            {
              "internalType": "string",
              "name": "insurancetype",
              "type": "string"
            },
            {
              "internalType": "string",
              "name": "username",
              "type": "string"
            },
            {
              "internalType": "string",
              "name": "policyId",
              "type": "string"
            },
            {
              "internalType": "uint256",
              "name": "aadhaarNumber",
              "type": "uint256"
            },
            {
              "internalType": "string",
              "name": "phoneNumber",
              "type": "string"
            }
          ],
          "internalType": "struct LifeInsurance.UserDetails",
          "name": "",
          "type": "tuple"
        }
      ],
      "stateMutability": "view",
      "type": "function",
      "constant": true
    },
    {
      "inputs": [
        {
          "internalType": "address",
          "name": "userAddress",
          "type": "address"
        }
      ],
      "name": "getNomineeDetails",
      "outputs": [
        {
          "components": [
            {
              "internalType": "string",
              "name": "nomineeName",
              "type": "string"
            },
            {
              "internalType": "uint256",
              "name": "nomineeAadhaar",
              "type": "uint256"
            },
            {
              "internalType": "string",
              "name": "nomineePhone",
              "type": "string"
            }
          ],
          "internalType": "struct LifeInsurance.NomineeDetails",
          "name": "",
          "type": "tuple"
        }
      ],
      "stateMutability": "view",
      "type": "function",
      "constant": true
    },
    {
      "inputs": [
        {
          "internalType": "address",
          "name": "userAddress",
          "type": "address"
        }
      ],
      "name": "getBankDetails",
      "outputs": [
        {
          "components": [
            {
              "internalType": "string",
              "name": "bankName",
              "type": "string"
            },
            {
              "internalType": "string",
              "name": "accountNumber",
              "type": "string"
            },
            {
              "internalType": "string",
              "name": "ifscCode",
              "type": "string"
            }
          ],
          "internalType": "struct LifeInsurance.BankDetails",
          "name": "",
          "type": "tuple"
        }
      ],
      "stateMutability": "view",
      "type": "function",
      "constant": true
    },
    {
      "inputs": [
        {
          "internalType": "address",
          "name": "userAddress",
          "type": "address"
        }
      ],
      "name": "getCertificateDetails",
      "outputs": [
        {
          "components": [
            {
              "internalType": "string",
              "name": "policyPhotoHash",
              "type": "string"
            },
            {
              "internalType": "string",
              "name": "reportsHash",
              "type": "string"
            }
          ],
          "internalType": "struct LifeInsurance.CertificateDetails",
          "name": "",
          "type": "tuple"
        }
      ],
      "stateMutability": "view",
      "type": "function",
      "constant": true
    },
    {
      "inputs": [
        {
          "internalType": "address",
          "name": "userAddress",
          "type": "address"
        }
      ],
      "name": "getHospitalDetails",
      "outputs": [
        {
          "components": [
            {
              "internalType": "string",
              "name": "policyId",
              "type": "string"
            },
            {
              "internalType": "string",
              "name": "fullName",
              "type": "string"
            },
            {
              "internalType": "string",
              "name": "contactInfo",
              "type": "string"
            },
            {
              "internalType": "string",
              "name": "userPhotoHash",
              "type": "string"
            }
          ],
          "internalType": "struct LifeInsurance.HospitalDetails",
          "name": "",
          "type": "tuple"
        }
      ],
      "stateMutability": "view",
      "type": "function",
      "constant": true
    },
    {
      "inputs": [
        {
          "internalType": "address",
          "name": "userAddress",
          "type": "address"
        }
      ],
      "name": "getPoliceDetails",
      "outputs": [
        {
          "components": [
            {
              "internalType": "string",
              "name": "policyId",
              "type": "string"
            },
            {
              "internalType": "string",
              "name": "fullName",
              "type": "string"
            },
            {
              "internalType": "string",
              "name": "contactInfo",
              "type": "string"
            },
            {
              "internalType": "string",
              "name": "userPhotoHash",
              "type": "string"
            }
          ],
          "internalType": "struct LifeInsurance.PoliceDetails",
          "name": "",
          "type": "tuple"
        }
      ],
      "stateMutability": "view",
      "type": "function",
      "constant": true
    },
    {
      "inputs": [],
      "name": "getAllUsers",
      "outputs": [
        {
          "components": [
            {
              "components": [
                {
                  "internalType": "string",
                  "name": "insurancetype",
                  "type": "string"
                },
                {
                  "internalType": "string",
                  "name": "username",
                  "type": "string"
                },
                {
                  "internalType": "string",
                  "name": "policyId",
                  "type": "string"
                },
                {
                  "internalType": "uint256",
                  "name": "aadhaarNumber",
                  "type": "uint256"
                },
                {
                  "internalType": "string",
                  "name": "phoneNumber",
                  "type": "string"
                }
              ],
              "internalType": "struct LifeInsurance.UserDetails",
              "name": "userDetails",
              "type": "tuple"
            },
            {
              "components": [
                {
                  "internalType": "string",
                  "name": "nomineeName",
                  "type": "string"
                },
                {
                  "internalType": "uint256",
                  "name": "nomineeAadhaar",
                  "type": "uint256"
                },
                {
                  "internalType": "string",
                  "name": "nomineePhone",
                  "type": "string"
                }
              ],
              "internalType": "struct LifeInsurance.NomineeDetails",
              "name": "nomineeDetails",
              "type": "tuple"
            },
            {
              "components": [
                {
                  "internalType": "string",
                  "name": "bankName",
                  "type": "string"
                },
                {
                  "internalType": "string",
                  "name": "accountNumber",
                  "type": "string"
                },
                {
                  "internalType": "string",
                  "name": "ifscCode",
                  "type": "string"
                }
              ],
              "internalType": "struct LifeInsurance.BankDetails",
              "name": "bankDetails",
              "type": "tuple"
            },
            {
              "components": [
                {
                  "internalType": "string",
                  "name": "policyPhotoHash",
                  "type": "string"
                },
                {
                  "internalType": "string",
                  "name": "reportsHash",
                  "type": "string"
                }
              ],
              "internalType": "struct LifeInsurance.CertificateDetails",
              "name": "certificateDetails",
              "type": "tuple"
            },
            {
              "components": [
                {
                  "internalType": "string",
                  "name": "policyId",
                  "type": "string"
                },
                {
                  "internalType": "string",
                  "name": "fullName",
                  "type": "string"
                },
                {
                  "internalType": "string",
                  "name": "contactInfo",
                  "type": "string"
                },
                {
                  "internalType": "string",
                  "name": "userPhotoHash",
                  "type": "string"
                }
              ],
              "internalType": "struct LifeInsurance.HospitalDetails",
              "name": "hospitalDetails",
              "type": "tuple"
            },
            {
              "components": [
                {
                  "internalType": "string",
                  "name": "policyId",
                  "type": "string"
                },
                {
                  "internalType": "string",
                  "name": "fullName",
                  "type": "string"
                },
                {
                  "internalType": "string",
                  "name": "contactInfo",
                  "type": "string"
                },
                {
                  "internalType": "string",
                  "name": "userPhotoHash",
                  "type": "string"
                }
              ],
              "internalType": "struct LifeInsurance.PoliceDetails",
              "name": "policeDetails",
              "type": "tuple"
            }
          ],
          "internalType": "struct LifeInsurance.InsuranceRecord[]",
          "name": "",
          "type": "tuple[]"
        }
      ],
      "stateMutability": "view",
      "type": "function",
      "constant": true
    },
    {
      "inputs": [],
      "name": "getUserAddresses",
      "outputs": [
        {
          "internalType": "address[]",
          "name": "",
          "type": "address[]"
        }
      ],
      "stateMutability": "view",
      "type": "function",
      "constant": true
    }
  ],
  "bytecode": "0x608060405234801561001057600080fd5b50613ca4806100206000396000f3fe608060405234801561001057600080fd5b50600436106100ea5760003560e01c8063a3c19d5f1161008c578063bab758b011610066578063bab758b01461026d578063cc3d967b14610289578063e2842d79146102b9578063e5ac83d0146102d7576100ea565b8063a3c19d5f14610217578063a591efde14610233578063abb7a5d314610251576100ea565b806335640560116100c8578063356405601461017f5780634950956e1461019b5780634f309b62146101cb5780638ffcb7a8146101fb576100ea565b80630bb307a8146100ef57806315101e021461011f57806316e362041461014f575b600080fd5b6101096004803603810190610104919061256c565b6102f3565b60405161011691906126a1565b60405180910390f35b6101396004803603810190610134919061256c565b610596565b6040516101469190612721565b60405180910390f35b6101696004803603810190610164919061256c565b6107a7565b6040516101769190612787565b60405180910390f35b610199600480360381019061019491906128de565b610926565b005b6101b560048036038101906101b0919061256c565b6109fb565b6040516101c291906129c6565b60405180910390f35b6101e560048036038101906101e0919061256c565b610b84565b6040516101f29190612a60565b60405180910390f35b61021560048036038101906102109190612a82565b610e27565b005b610231600480360381019061022c9190612b55565b610f19565b005b61023b610fff565b6040516102489190612c9e565b60405180910390f35b61026b60048036038101906102669190612cc0565b61108d565b005b61028760048036038101906102829190612dab565b611269565b005b6102a3600480360381019061029e919061256c565b611378565b6040516102b09190612f0d565b60405180910390f35b6102c1611625565b6040516102ce9190613311565b60405180910390f35b6102f160048036038101906102ec9190612dab565b6122b6565b005b6102fb6123c5565b6000808373ffffffffffffffffffffffffffffffffffffffff1673ffffffffffffffffffffffffffffffffffffffff168152602001908152602001600020600d0160405180608001604052908160008201805461035790613362565b80601f016020809104026020016040519081016040528092919081815260200182805461038390613362565b80156103d05780601f106103a5576101008083540402835291602001916103d0565b820191906000526020600020905b8154815290600101906020018083116103b357829003601f168201915b505050505081526020016001820180546103e990613362565b80601f016020809104026020016040519081016040528092919081815260200182805461041590613362565b80156104625780601f1061043757610100808354040283529160200191610462565b820191906000526020600020905b81548152906001019060200180831161044557829003601f168201915b5050505050815260200160028201805461047b90613362565b80601f01602080910402602001604051908101604052809291908181526020018280546104a790613362565b80156104f45780601f106104c9576101008083540402835291602001916104f4565b820191906000526020600020905b8154815290600101906020018083116104d757829003601f168201915b5050505050815260200160038201805461050d90613362565b80601f016020809104026020016040519081016040528092919081815260200182805461053990613362565b80156105865780601f1061055b57610100808354040283529160200191610586565b820191906000526020600020905b81548152906001019060200180831161056957829003601f168201915b5050505050815250509050919050565b61059e6123ed565b6000808373ffffffffffffffffffffffffffffffffffffffff1673ffffffffffffffffffffffffffffffffffffffff1681526020019081526020016000206008016040518060600160405290816000820180546105fa90613362565b80601f016020809104026020016040519081016040528092919081815260200182805461062690613362565b80156106735780601f1061064857610100808354040283529160200191610673565b820191906000526020600020905b81548152906001019060200180831161065657829003601f168201915b5050505050815260200160018201805461068c90613362565b80601f01602080910402602001604051908101604052809291908181526020018280546106b890613362565b80156107055780601f106106da57610100808354040283529160200191610705565b820191906000526020600020905b8154815290600101906020018083116106e857829003601f168201915b5050505050815260200160028201805461071e90613362565b80601f016020809104026020016040519081016040528092919081815260200182805461074a90613362565b80156107975780601f1061076c57610100808354040283529160200191610797565b820191906000526020600020905b81548152906001019060200180831161077a57829003601f168201915b5050505050815250509050919050565b6107af61240e565b6000808373ffffffffffffffffffffffffffffffffffffffff1673ffffffffffffffffffffffffffffffffffffffff168152602001908152602001600020600b0160405180604001604052908160008201805461080b90613362565b80601f016020809104026020016040519081016040528092919081815260200182805461083790613362565b80156108845780601f1061085957610100808354040283529160200191610884565b820191906000526020600020905b81548152906001019060200180831161086757829003601f168201915b5050505050815260200160018201805461089d90613362565b80601f01602080910402602001604051908101604052809291908181526020018280546108c990613362565b80156109165780601f106108eb57610100808354040283529160200191610916565b820191906000526020600020905b8154815290600101906020018083116108f957829003601f168201915b5050505050815250509050919050565b6040518060400160405280838152602001828152506000803373ffffffffffffffffffffffffffffffffffffffff1673ffffffffffffffffffffffffffffffffffffffff168152602001908152602001600020600b016000820151816000019081610991919061353f565b5060208201518160010190816109a7919061353f565b509050503373ffffffffffffffffffffffffffffffffffffffff167fc3d0cea7703ed50a4b3bfa3ec6a19e9e186d4caea8e774ac9e38a1e53c7c661e6040516109ef906136e0565b60405180910390a25050565b610a03612428565b6000808373ffffffffffffffffffffffffffffffffffffffff1673ffffffffffffffffffffffffffffffffffffffff168152602001908152602001600020600501604051806060016040529081600082018054610a5f90613362565b80601f0160208091040260200160405190810160405280929190818152602001828054610a8b90613362565b8015610ad85780601f10610aad57610100808354040283529160200191610ad8565b820191906000526020600020905b815481529060010190602001808311610abb57829003601f168201915b5050505050815260200160018201548152602001600282018054610afb90613362565b80601f0160208091040260200160405190810160405280929190818152602001828054610b2790613362565b8015610b745780601f10610b4957610100808354040283529160200191610b74565b820191906000526020600020905b815481529060010190602001808311610b5757829003601f168201915b5050505050815250509050919050565b610b8c612449565b6000808373ffffffffffffffffffffffffffffffffffffffff1673ffffffffffffffffffffffffffffffffffffffff168152602001908152602001600020601101604051806080016040529081600082018054610be890613362565b80601f0160208091040260200160405190810160405280929190818152602001828054610c1490613362565b8015610c615780601f10610c3657610100808354040283529160200191610c61565b820191906000526020600020905b815481529060010190602001808311610c4457829003601f168201915b50505050508152602001600182018054610c7a90613362565b80601f0160208091040260200160405190810160405280929190818152602001828054610ca690613362565b8015610cf35780601f10610cc857610100808354040283529160200191610cf3565b820191906000526020600020905b815481529060010190602001808311610cd657829003601f168201915b50505050508152602001600282018054610d0c90613362565b80601f0160208091040260200160405190810160405280929190818152602001828054610d3890613362565b8015610d855780601f10610d5a57610100808354040283529160200191610d85565b820191906000526020600020905b815481529060010190602001808311610d6857829003601f168201915b50505050508152602001600382018054610d9e90613362565b80601f0160208091040260200160405190810160405280929190818152602001828054610dca90613362565b8015610e175780601f10610dec57610100808354040283529160200191610e17565b820191906000526020600020905b815481529060010190602001808311610dfa57829003601f168201915b5050505050815250509050919050565b6040518060600160405280848152602001838152602001828152506000803373ffffffffffffffffffffffffffffffffffffffff1673ffffffffffffffffffffffffffffffffffffffff1681526020019081526020016000206008016000820151816000019081610e98919061353f565b506020820151816001019081610eae919061353f565b506040820151816002019081610ec4919061353f565b509050503373ffffffffffffffffffffffffffffffffffffffff167fc3d0cea7703ed50a4b3bfa3ec6a19e9e186d4caea8e774ac9e38a1e53c7c661e604051610f0c906137d1565b60405180910390a2505050565b6040518060600160405280848152602001838152602001828152506000803373ffffffffffffffffffffffffffffffffffffffff1673ffffffffffffffffffffffffffffffffffffffff1681526020019081526020016000206005016000820151816000019081610f8a919061353f565b50602082015181600101556040820151816002019081610faa919061353f565b509050503373ffffffffffffffffffffffffffffffffffffffff167fc3d0cea7703ed50a4b3bfa3ec6a19e9e186d4caea8e774ac9e38a1e53c7c661e604051610ff2906138c2565b60405180910390a2505050565b6060600180548060200260200160405190810160405280929190818152602001828054801561108357602002820191906000526020600020905b8160009054906101000a900473ffffffffffffffffffffffffffffffffffffffff1673ffffffffffffffffffffffffffffffffffffffff1681526020019060010190808311611039575b5050505050905090565b60008060003373ffffffffffffffffffffffffffffffffffffffff1673ffffffffffffffffffffffffffffffffffffffff16815260200190815260200160002060000160010180546110de90613362565b905003611149576001339080600181540180825580915050600190039060005260206000200160009091909190916101000a81548173ffffffffffffffffffffffffffffffffffffffff021916908373ffffffffffffffffffffffffffffffffffffffff1602179055505b6040518060a00160405280868152602001858152602001848152602001838152602001828152506000803373ffffffffffffffffffffffffffffffffffffffff1673ffffffffffffffffffffffffffffffffffffffff16815260200190815260200160002060000160008201518160000190816111c6919061353f565b5060208201518160010190816111dc919061353f565b5060408201518160020190816111f2919061353f565b50606082015181600301556080820151816004019081611212919061353f565b509050503373ffffffffffffffffffffffffffffffffffffffff167fc3d0cea7703ed50a4b3bfa3ec6a19e9e186d4caea8e774ac9e38a1e53c7c661e60405161125a906139b3565b60405180910390a25050505050565b6040518060800160405280858152602001848152602001838152602001828152506000803373ffffffffffffffffffffffffffffffffffffffff1673ffffffffffffffffffffffffffffffffffffffff16815260200190815260200160002060110160008201518160000190816112e0919061353f565b5060208201518160010190816112f6919061353f565b50604082015181600201908161130c919061353f565b506060820151816003019081611322919061353f565b509050503373ffffffffffffffffffffffffffffffffffffffff167fc3d0cea7703ed50a4b3bfa3ec6a19e9e186d4caea8e774ac9e38a1e53c7c661e60405161136a90613aa4565b60405180910390a250505050565b611380612471565b6000808373ffffffffffffffffffffffffffffffffffffffff1673ffffffffffffffffffffffffffffffffffffffff1681526020019081526020016000206000016040518060a00160405290816000820180546113dc90613362565b80601f016020809104026020016040519081016040528092919081815260200182805461140890613362565b80156114555780601f1061142a57610100808354040283529160200191611455565b820191906000526020600020905b81548152906001019060200180831161143857829003601f168201915b5050505050815260200160018201805461146e90613362565b80601f016020809104026020016040519081016040528092919081815260200182805461149a90613362565b80156114e75780601f106114bc576101008083540402835291602001916114e7565b820191906000526020600020905b8154815290600101906020018083116114ca57829003601f168201915b5050505050815260200160028201805461150090613362565b80601f016020809104026020016040519081016040528092919081815260200182805461152c90613362565b80156115795780601f1061154e57610100808354040283529160200191611579565b820191906000526020600020905b81548152906001019060200180831161155c57829003601f168201915b505050505081526020016003820154815260200160048201805461159c90613362565b80601f01602080910402602001604051908101604052809291908181526020018280546115c890613362565b80156116155780601f106115ea57610100808354040283529160200191611615565b820191906000526020600020905b8154815290600101906020018083116115f857829003601f168201915b5050505050815250509050919050565b6060600060018054905067ffffffffffffffff811115611648576116476127b3565b5b60405190808252806020026020018201604052801561168157816020015b61166e6124a0565b8152602001906001900390816116665790505b50905060005b6001805490508110156122ae57600080600183815481106116ab576116aa613ad7565b5b9060005260206000200160009054906101000a900473ffffffffffffffffffffffffffffffffffffffff1673ffffffffffffffffffffffffffffffffffffffff1673ffffffffffffffffffffffffffffffffffffffff1681526020019081526020016000206040518060c0016040529081600082016040518060a001604052908160008201805461173b90613362565b80601f016020809104026020016040519081016040528092919081815260200182805461176790613362565b80156117b45780601f10611789576101008083540402835291602001916117b4565b820191906000526020600020905b81548152906001019060200180831161179757829003601f168201915b505050505081526020016001820180546117cd90613362565b80601f01602080910402602001604051908101604052809291908181526020018280546117f990613362565b80156118465780601f1061181b57610100808354040283529160200191611846565b820191906000526020600020905b81548152906001019060200180831161182957829003601f168201915b5050505050815260200160028201805461185f90613362565b80601f016020809104026020016040519081016040528092919081815260200182805461188b90613362565b80156118d85780601f106118ad576101008083540402835291602001916118d8565b820191906000526020600020905b8154815290600101906020018083116118bb57829003601f168201915b50505050508152602001600382015481526020016004820180546118fb90613362565b80601f016020809104026020016040519081016040528092919081815260200182805461192790613362565b80156119745780601f1061194957610100808354040283529160200191611974565b820191906000526020600020905b81548152906001019060200180831161195757829003601f168201915b5050505050815250508152602001600582016040518060600160405290816000820180546119a190613362565b80601f01602080910402602001604051908101604052809291908181526020018280546119cd90613362565b8015611a1a5780601f106119ef57610100808354040283529160200191611a1a565b820191906000526020600020905b8154815290600101906020018083116119fd57829003601f168201915b5050505050815260200160018201548152602001600282018054611a3d90613362565b80601f0160208091040260200160405190810160405280929190818152602001828054611a6990613362565b8015611ab65780601f10611a8b57610100808354040283529160200191611ab6565b820191906000526020600020905b815481529060010190602001808311611a9957829003601f168201915b505050505081525050815260200160088201604051806060016040529081600082018054611ae390613362565b80601f0160208091040260200160405190810160405280929190818152602001828054611b0f90613362565b8015611b5c5780601f10611b3157610100808354040283529160200191611b5c565b820191906000526020600020905b815481529060010190602001808311611b3f57829003601f168201915b50505050508152602001600182018054611b7590613362565b80601f0160208091040260200160405190810160405280929190818152602001828054611ba190613362565b8015611bee5780601f10611bc357610100808354040283529160200191611bee565b820191906000526020600020905b815481529060010190602001808311611bd157829003601f168201915b50505050508152602001600282018054611c0790613362565b80601f0160208091040260200160405190810160405280929190818152602001828054611c3390613362565b8015611c805780601f10611c5557610100808354040283529160200191611c80565b820191906000526020600020905b815481529060010190602001808311611c6357829003601f168201915b5050505050815250508152602001600b8201604051806040016040529081600082018054611cad90613362565b80601f0160208091040260200160405190810160405280929190818152602001828054611cd990613362565b8015611d265780601f10611cfb57610100808354040283529160200191611d26565b820191906000526020600020905b815481529060010190602001808311611d0957829003601f168201915b50505050508152602001600182018054611d3f90613362565b80601f0160208091040260200160405190810160405280929190818152602001828054611d6b90613362565b8015611db85780601f10611d8d57610100808354040283529160200191611db8565b820191906000526020600020905b815481529060010190602001808311611d9b57829003601f168201915b5050505050815250508152602001600d8201604051806080016040529081600082018054611de590613362565b80601f0160208091040260200160405190810160405280929190818152602001828054611e1190613362565b8015611e5e5780601f10611e3357610100808354040283529160200191611e5e565b820191906000526020600020905b815481529060010190602001808311611e4157829003601f168201915b50505050508152602001600182018054611e7790613362565b80601f0160208091040260200160405190810160405280929190818152602001828054611ea390613362565b8015611ef05780601f10611ec557610100808354040283529160200191611ef0565b820191906000526020600020905b815481529060010190602001808311611ed357829003601f168201915b50505050508152602001600282018054611f0990613362565b80601f0160208091040260200160405190810160405280929190818152602001828054611f3590613362565b8015611f825780601f10611f5757610100808354040283529160200191611f82565b820191906000526020600020905b815481529060010190602001808311611f6557829003601f168201915b50505050508152602001600382018054611f9b90613362565b80601f0160208091040260200160405190810160405280929190818152602001828054611fc790613362565b80156120145780601f10611fe957610100808354040283529160200191612014565b820191906000526020600020905b815481529060010190602001808311611ff757829003601f168201915b50505050508152505081526020016011820160405180608001604052908160008201805461204190613362565b80601f016020809104026020016040519081016040528092919081815260200182805461206d90613362565b80156120ba5780601f1061208f576101008083540402835291602001916120ba565b820191906000526020600020905b81548152906001019060200180831161209d57829003601f168201915b505050505081526020016001820180546120d390613362565b80601f01602080910402602001604051908101604052809291908181526020018280546120ff90613362565b801561214c5780601f106121215761010080835404028352916020019161214c565b820191906000526020600020905b81548152906001019060200180831161212f57829003601f168201915b5050505050815260200160028201805461216590613362565b80601f016020809104026020016040519081016040528092919081815260200182805461219190613362565b80156121de5780601f106121b3576101008083540402835291602001916121de565b820191906000526020600020905b8154815290600101906020018083116121c157829003601f168201915b505050505081526020016003820180546121f790613362565b80601f016020809104026020016040519081016040528092919081815260200182805461222390613362565b80156122705780601f1061224557610100808354040283529160200191612270565b820191906000526020600020905b81548152906001019060200180831161225357829003601f168201915b505050505081525050815250508282815181106122905761228f613ad7565b5b602002602001018190525080806122a690613b35565b915050611687565b508091505090565b6040518060800160405280858152602001848152602001838152602001828152506000803373ffffffffffffffffffffffffffffffffffffffff1673ffffffffffffffffffffffffffffffffffffffff168152602001908152602001600020600d01600082015181600001908161232d919061353f565b506020820151816001019081612343919061353f565b506040820151816002019081612359919061353f565b50606082015181600301908161236f919061353f565b509050503373ffffffffffffffffffffffffffffffffffffffff167fc3d0cea7703ed50a4b3bfa3ec6a19e9e186d4caea8e774ac9e38a1e53c7c661e6040516123b790613c3b565b60405180910390a250505050565b6040518060800160405280606081526020016060815260200160608152602001606081525090565b60405180606001604052806060815260200160608152602001606081525090565b604051806040016040528060608152602001606081525090565b60405180606001604052806060815260200160008152602001606081525090565b6040518060800160405280606081526020016060815260200160608152602001606081525090565b6040518060a0016040528060608152602001606081526020016060815260200160008152602001606081525090565b6040518060c001604052806124b3612471565b81526020016124c0612428565b81526020016124cd6123ed565b81526020016124da61240e565b81526020016124e76123c5565b81526020016124f4612449565b81525090565b6000604051905090565b600080fd5b600080fd5b600073ffffffffffffffffffffffffffffffffffffffff82169050919050565b60006125398261250e565b9050919050565b6125498161252e565b811461255457600080fd5b50565b60008135905061256681612540565b92915050565b60006020828403121561258257612581612504565b5b600061259084828501612557565b91505092915050565b600081519050919050565b600082825260208201905092915050565b60005b838110156125d35780820151818401526020810190506125b8565b60008484015250505050565b6000601f19601f8301169050919050565b60006125fb82612599565b61260581856125a4565b93506126158185602086016125b5565b61261e816125df565b840191505092915050565b6000608083016000830151848203600086015261264682826125f0565b9150506020830151848203602086015261266082826125f0565b9150506040830151848203604086015261267a82826125f0565b9150506060830151848203606086015261269482826125f0565b9150508091505092915050565b600060208201905081810360008301526126bb8184612629565b905092915050565b600060608301600083015184820360008601526126e082826125f0565b915050602083015184820360208601526126fa82826125f0565b9150506040830151848203604086015261271482826125f0565b9150508091505092915050565b6000602082019050818103600083015261273b81846126c3565b905092915050565b6000604083016000830151848203600086015261276082826125f0565b9150506020830151848203602086015261277a82826125f0565b9150508091505092915050565b600060208201905081810360008301526127a18184612743565b905092915050565b600080fd5b600080fd5b7f4e487b7100000000000000000000000000000000000000000000000000000000600052604160045260246000fd5b6127eb826125df565b810181811067ffffffffffffffff8211171561280a576128096127b3565b5b80604052505050565b600061281d6124fa565b905061282982826127e2565b919050565b600067ffffffffffffffff821115612849576128486127b3565b5b612852826125df565b9050602081019050919050565b82818337600083830152505050565b600061288161287c8461282e565b612813565b90508281526020810184848401111561289d5761289c6127ae565b5b6128a884828561285f565b509392505050565b600082601f8301126128c5576128c46127a9565b5b81356128d584826020860161286e565b91505092915050565b600080604083850312156128f5576128f4612504565b5b600083013567ffffffffffffffff81111561291357612912612509565b5b61291f858286016128b0565b925050602083013567ffffffffffffffff8111156129405761293f612509565b5b61294c858286016128b0565b9150509250929050565b6000819050919050565b61296981612956565b82525050565b6000606083016000830151848203600086015261298c82826125f0565b91505060208301516129a16020860182612960565b50604083015184820360408601526129b982826125f0565b9150508091505092915050565b600060208201905081810360008301526129e0818461296f565b905092915050565b60006080830160008301518482036000860152612a0582826125f0565b91505060208301518482036020860152612a1f82826125f0565b91505060408301518482036040860152612a3982826125f0565b91505060608301518482036060860152612a5382826125f0565b9150508091505092915050565b60006020820190508181036000830152612a7a81846129e8565b905092915050565b600080600060608486031215612a9b57612a9a612504565b5b600084013567ffffffffffffffff811115612ab957612ab8612509565b5b612ac5868287016128b0565b935050602084013567ffffffffffffffff811115612ae657612ae5612509565b5b612af2868287016128b0565b925050604084013567ffffffffffffffff811115612b1357612b12612509565b5b612b1f868287016128b0565b9150509250925092565b612b3281612956565b8114612b3d57600080fd5b50565b600081359050612b4f81612b29565b92915050565b600080600060608486031215612b6e57612b6d612504565b5b600084013567ffffffffffffffff811115612b8c57612b8b612509565b5b612b98868287016128b0565b9350506020612ba986828701612b40565b925050604084013567ffffffffffffffff811115612bca57612bc9612509565b5b612bd6868287016128b0565b9150509250925092565b600081519050919050565b600082825260208201905092915050565b6000819050602082019050919050565b612c158161252e565b82525050565b6000612c278383612c0c565b60208301905092915050565b6000602082019050919050565b6000612c4b82612be0565b612c558185612beb565b9350612c6083612bfc565b8060005b83811015612c91578151612c788882612c1b565b9750612c8383612c33565b925050600181019050612c64565b5085935050505092915050565b60006020820190508181036000830152612cb88184612c40565b905092915050565b600080600080600060a08688031215612cdc57612cdb612504565b5b600086013567ffffffffffffffff811115612cfa57612cf9612509565b5b612d06888289016128b0565b955050602086013567ffffffffffffffff811115612d2757612d26612509565b5b612d33888289016128b0565b945050604086013567ffffffffffffffff811115612d5457612d53612509565b5b612d60888289016128b0565b9350506060612d7188828901612b40565b925050608086013567ffffffffffffffff811115612d9257612d91612509565b5b612d9e888289016128b0565b9150509295509295909350565b60008060008060808587031215612dc557612dc4612504565b5b600085013567ffffffffffffffff811115612de357612de2612509565b5b612def878288016128b0565b945050602085013567ffffffffffffffff811115612e1057612e0f612509565b5b612e1c878288016128b0565b935050604085013567ffffffffffffffff811115612e3d57612e3c612509565b5b612e49878288016128b0565b925050606085013567ffffffffffffffff811115612e6a57612e69612509565b5b612e76878288016128b0565b91505092959194509250565b600060a0830160008301518482036000860152612e9f82826125f0565b91505060208301518482036020860152612eb982826125f0565b91505060408301518482036040860152612ed382826125f0565b9150506060830151612ee86060860182612960565b5060808301518482036080860152612f0082826125f0565b9150508091505092915050565b60006020820190508181036000830152612f278184612e82565b905092915050565b600081519050919050565b600082825260208201905092915050565b6000819050602082019050919050565b600060a0830160008301518482036000860152612f7882826125f0565b91505060208301518482036020860152612f9282826125f0565b91505060408301518482036040860152612fac82826125f0565b9150506060830151612fc16060860182612960565b5060808301518482036080860152612fd982826125f0565b9150508091505092915050565b6000606083016000830151848203600086015261300382826125f0565b91505060208301516130186020860182612960565b506040830151848203604086015261303082826125f0565b9150508091505092915050565b6000606083016000830151848203600086015261305a82826125f0565b9150506020830151848203602086015261307482826125f0565b9150506040830151848203604086015261308e82826125f0565b9150508091505092915050565b600060408301600083015184820360008601526130b882826125f0565b915050602083015184820360208601526130d282826125f0565b9150508091505092915050565b600060808301600083015184820360008601526130fc82826125f0565b9150506020830151848203602086015261311682826125f0565b9150506040830151848203604086015261313082826125f0565b9150506060830151848203606086015261314a82826125f0565b9150508091505092915050565b6000608083016000830151848203600086015261317482826125f0565b9150506020830151848203602086015261318e82826125f0565b915050604083015184820360408601526131a882826125f0565b915050606083015184820360608601526131c282826125f0565b9150508091505092915050565b600060c08301600083015184820360008601526131ec8282612f5b565b915050602083015184820360208601526132068282612fe6565b91505060408301518482036040860152613220828261303d565b9150506060830151848203606086015261323a828261309b565b9150506080830151848203608086015261325482826130df565b91505060a083015184820360a086015261326e8282613157565b9150508091505092915050565b600061328783836131cf565b905092915050565b6000602082019050919050565b60006132a782612f2f565b6132b18185612f3a565b9350836020820285016132c385612f4b565b8060005b858110156132ff57848403895281516132e0858261327b565b94506132eb8361328f565b925060208a019950506001810190506132c7565b50829750879550505050505092915050565b6000602082019050818103600083015261332b818461329c565b905092915050565b7f4e487b7100000000000000000000000000000000000000000000000000000000600052602260045260246000fd5b6000600282049050600182168061337a57607f821691505b60208210810361338d5761338c613333565b5b50919050565b60008190508160005260206000209050919050565b60006020601f8301049050919050565b600082821b905092915050565b6000600883026133f57fffffffffffffffffffffffffffffffffffffffffffffffffffffffffffffffff826133b8565b6133ff86836133b8565b95508019841693508086168417925050509392505050565b6000819050919050565b600061343c61343761343284612956565b613417565b612956565b9050919050565b6000819050919050565b61345683613421565b61346a61346282613443565b8484546133c5565b825550505050565b600090565b61347f613472565b61348a81848461344d565b505050565b5b818110156134ae576134a3600082613477565b600181019050613490565b5050565b601f8211156134f3576134c481613393565b6134cd846133a8565b810160208510156134dc578190505b6134f06134e8856133a8565b83018261348f565b50505b505050565b600082821c905092915050565b6000613516600019846008026134f8565b1980831691505092915050565b600061352f8383613505565b9150826002028217905092915050565b61354882612599565b67ffffffffffffffff811115613561576135606127b3565b5b61356b8254613362565b6135768282856134b2565b600060209050601f8311600181146135a95760008415613597578287015190505b6135a18582613523565b865550613609565b601f1984166135b786613393565b60005b828110156135df578489015182556001820191506020850194506020810190506135ba565b868310156135fc57848901516135f8601f891682613505565b8355505b6001600288020188555050505b505050505050565b600082825260208201905092915050565b7f4365727469666963617465000000000000000000000000000000000000000000600082015250565b6000613658600b83613611565b915061366382613622565b602082019050919050565b7f43657274696669636174652064657461696c732075706461746564207375636360008201527f65737366756c6c792e0000000000000000000000000000000000000000000000602082015250565b60006136ca602983613611565b91506136d58261366e565b604082019050919050565b600060408201905081810360008301526136f98161364b565b9050818103602083015261370c816136bd565b9050919050565b7f42616e6b00000000000000000000000000000000000000000000000000000000600082015250565b6000613749600483613611565b915061375482613713565b602082019050919050565b7f42616e6b2064657461696c732075706461746564207375636365737366756c6c60008201527f792e000000000000000000000000000000000000000000000000000000000000602082015250565b60006137bb602283613611565b91506137c68261375f565b604082019050919050565b600060408201905081810360008301526137ea8161373c565b905081810360208301526137fd816137ae565b9050919050565b7f4e6f6d696e656500000000000000000000000000000000000000000000000000600082015250565b600061383a600783613611565b915061384582613804565b602082019050919050565b7f4e6f6d696e65652064657461696c73207570646174656420737563636573736660008201527f756c6c792e000000000000000000000000000000000000000000000000000000602082015250565b60006138ac602583613611565b91506138b782613850565b604082019050919050565b600060408201905081810360008301526138db8161382d565b905081810360208301526138ee8161389f565b9050919050565b7f5573657200000000000000000000000000000000000000000000000000000000600082015250565b600061392b600483613611565b9150613936826138f5565b602082019050919050565b7f557365722064657461696c732075706461746564207375636365737366756c6c60008201527f792e000000000000000000000000000000000000000000000000000000000000602082015250565b600061399d602283613611565b91506139a882613941565b604082019050919050565b600060408201905081810360008301526139cc8161391e565b905081810360208301526139df81613990565b9050919050565b7f506f6c6963650000000000000000000000000000000000000000000000000000600082015250565b6000613a1c600683613611565b9150613a27826139e6565b602082019050919050565b7f506f6c6963652064657461696c7320757064617465642073756363657373667560008201527f6c6c792e00000000000000000000000000000000000000000000000000000000602082015250565b6000613a8e602483613611565b9150613a9982613a32565b604082019050919050565b60006040820190508181036000830152613abd81613a0f565b90508181036020830152613ad081613a81565b9050919050565b7f4e487b7100000000000000000000000000000000000000000000000000000000600052603260045260246000fd5b7f4e487b7100000000000000000000000000000000000000000000000000000000600052601160045260246000fd5b6000613b4082612956565b91507fffffffffffffffffffffffffffffffffffffffffffffffffffffffffffffffff8203613b7257613b71613b06565b5b600182019050919050565b7f486f73706974616c000000000000000000000000000000000000000000000000600082015250565b6000613bb3600883613611565b9150613bbe82613b7d565b602082019050919050565b7f486f73706974616c2064657461696c732075706461746564207375636365737360008201527f66756c6c792e0000000000000000000000000000000000000000000000000000602082015250565b6000613c25602683613611565b9150613c3082613bc9565b604082019050919050565b60006040820190508181036000830152613c5481613ba6565b90508181036020830152613c6781613c18565b905091905056fea26469706673582212207a00c4e5ba3e31e310b6835cdc0efe2c05210bec31dff3cd4d2977f759358f5064736f6c63430008130033",
  "immutableReferences": {},
  "source": "// SPDX-License-Identifier: MIT \r\npragma solidity 0.8.19;\r\n\r\ncontract LifeInsurance {\r\n\r\n    struct UserDetails {\r\n        string insurancetype;\r\n        string username;\r\n        string policyId;\r\n        uint256 aadhaarNumber;\r\n        string phoneNumber;\r\n    }\r\n\r\n    struct NomineeDetails {\r\n        string nomineeName;\r\n        uint256 nomineeAadhaar;\r\n        string nomineePhone;\r\n    }\r\n\r\n    struct BankDetails {\r\n        string bankName;\r\n        string accountNumber;\r\n        string ifscCode;\r\n    }\r\n\r\n    struct CertificateDetails {\r\n        string policyPhotoHash;\r\n        string reportsHash;\r\n    }\r\n\r\n    struct HospitalDetails {\r\n        string policyId;\r\n        string fullName;\r\n        string contactInfo;\r\n        string userPhotoHash;\r\n    }\r\n\r\n    struct PoliceDetails {\r\n        string policyId;\r\n        string fullName;\r\n        string contactInfo;\r\n        string userPhotoHash;\r\n    }\r\n\r\n    struct InsuranceRecord {\r\n        UserDetails userDetails;\r\n        NomineeDetails nomineeDetails;\r\n        BankDetails bankDetails;\r\n        CertificateDetails certificateDetails;\r\n        HospitalDetails hospitalDetails;\r\n        PoliceDetails policeDetails;\r\n    }\r\n\r\n    mapping(address => InsuranceRecord) private insuranceRecords;\r\n    address[] private userAddresses; // Array to track all user addresses\r\n\r\n    event DetailsSubmitted(\r\n        address indexed userAddress,\r\n        string category,\r\n        string description\r\n    );\r\n\r\n    function submitUserDetails(\r\n        string memory _insurancetype,\r\n        string memory _username,\r\n        string memory _policyId,\r\n        uint256 _aadhaarNumber,\r\n        string memory _phoneNumber\r\n    ) public {\r\n        if (bytes(insuranceRecords[msg.sender].userDetails.username).length == 0) {\r\n            userAddresses.push(msg.sender);\r\n        }\r\n\r\n        insuranceRecords[msg.sender].userDetails = UserDetails(\r\n            _insurancetype,\r\n            _username,\r\n            _policyId,\r\n            _aadhaarNumber,\r\n            _phoneNumber\r\n        );\r\n\r\n        emit DetailsSubmitted(msg.sender, \"User\", \"User details updated successfully.\");\r\n    }\r\n\r\n    function submitNomineeDetails(\r\n        string memory _nomineeName,\r\n        uint256 _nomineeAadhaar,\r\n        string memory _nomineePhone\r\n    ) public {\r\n        insuranceRecords[msg.sender].nomineeDetails = NomineeDetails(\r\n            _nomineeName,\r\n            _nomineeAadhaar,\r\n            _nomineePhone\r\n        );\r\n\r\n        emit DetailsSubmitted(msg.sender, \"Nominee\", \"Nominee details updated successfully.\");\r\n    }\r\n\r\n    function submitBankDetails(\r\n        string memory _bankName,\r\n        string memory _accountNumber,\r\n        string memory _ifscCode\r\n    ) public {\r\n        insuranceRecords[msg.sender].bankDetails = BankDetails(\r\n            _bankName,\r\n            _accountNumber,\r\n            _ifscCode\r\n        );\r\n\r\n        emit DetailsSubmitted(msg.sender, \"Bank\", \"Bank details updated successfully.\");\r\n    }\r\n\r\n    function submitCertificateDetails(\r\n        string memory _policyPhotoHash,\r\n        string memory _reportsHash\r\n    ) public {\r\n        insuranceRecords[msg.sender].certificateDetails = CertificateDetails(\r\n            _policyPhotoHash,\r\n            _reportsHash\r\n        );\r\n\r\n        emit DetailsSubmitted(msg.sender, \"Certificate\", \"Certificate details updated successfully.\");\r\n    }\r\n\r\n    function submitHospitalDetails(\r\n        string memory _policyId,\r\n        string memory _fullName,\r\n        string memory _contactInfo,\r\n        string memory _userPhotoHash\r\n    ) public {\r\n        insuranceRecords[msg.sender].hospitalDetails = HospitalDetails(\r\n            _policyId,\r\n            _fullName,\r\n            _contactInfo,\r\n            _userPhotoHash\r\n        );\r\n\r\n        emit DetailsSubmitted(msg.sender, \"Hospital\", \"Hospital details updated successfully.\");\r\n    }\r\n\r\n    function submitPoliceDetails(\r\n        string memory _policyId,\r\n        string memory _fullName,\r\n        string memory _contactInfo,\r\n        string memory _userPhotoHash\r\n    ) public {\r\n        insuranceRecords[msg.sender].policeDetails = PoliceDetails(\r\n            _policyId,\r\n            _fullName,\r\n            _contactInfo,\r\n            _userPhotoHash\r\n        );\r\n\r\n        emit DetailsSubmitted(msg.sender, \"Police\", \"Police details updated successfully.\");\r\n    }\r\n\r\n    function getUserDetails(address userAddress)\r\n        public\r\n        view\r\n        returns (UserDetails memory)\r\n    {\r\n        return insuranceRecords[userAddress].userDetails;\r\n    }\r\n\r\n    function getNomineeDetails(address userAddress)\r\n        public\r\n        view\r\n        returns (NomineeDetails memory)\r\n    {\r\n        return insuranceRecords[userAddress].nomineeDetails;\r\n    }\r\n\r\n    function getBankDetails(address userAddress)\r\n        public\r\n        view\r\n        returns (BankDetails memory)\r\n    {\r\n        return insuranceRecords[userAddress].bankDetails;\r\n    }\r\n\r\n    function getCertificateDetails(address userAddress)\r\n        public\r\n        view\r\n        returns (CertificateDetails memory)\r\n    {\r\n        return insuranceRecords[userAddress].certificateDetails;\r\n    }\r\n\r\n    function getHospitalDetails(address userAddress)\r\n        public\r\n        view\r\n        returns (HospitalDetails memory)\r\n    {\r\n        return insuranceRecords[userAddress].hospitalDetails;\r\n    }\r\n\r\n    function getPoliceDetails(address userAddress)\r\n        public\r\n        view\r\n        returns (PoliceDetails memory)\r\n    {\r\n        return insuranceRecords[userAddress].policeDetails;\r\n    }\r\n\r\n    // Function to retrieve all user records\r\n    function getAllUsers() public view returns (InsuranceRecord[] memory) {\r\n        InsuranceRecord[] memory allRecords = new InsuranceRecord[](userAddresses.length);\r\n\r\n        for (uint256 i = 0; i < userAddresses.length; i++) {\r\n            allRecords[i] = insuranceRecords[userAddresses[i]];\r\n        }\r\n\r\n        return allRecords;\r\n    }\r\n\r\n    // Function to retrieve all user addresses\r\n    function getUserAddresses() public view returns (address[] memory) {\r\n        return userAddresses;\r\n    }\r\n}\r\n",
  "sourcePath": "C:\\Users\\Sudheer\\Desktop\\Seamless-Insurance-Claims-Processing-KITS-IT-Final\\contracts\\LifeInsurance.sol",
  "compiler": {
    "name": "solc",
    "version": "0.8.19+commit.7dd6d404.Emscripten.clang"
  },
  "schemaVersion": "3.4.16",
  "updatedAt": "2025-01-03T12:37:10.403Z",
  "networkType": "ethereum",
  "devdoc": {
    "kind": "dev",
    "methods": {},
    "version": 1
  },
  "userdoc": {
    "kind": "user",
    "methods": {},
    "version": 1
  }
}