{
  "contractName": "LifeInsurance",
  "abi": [
    {
      "anonymous": false,
      "inputs": [
        {
          "indexed": true,
          "internalType": "address",
          "name": "userAddress",
          "type": "address"
        },
        {
          "indexed": false,
          "internalType": "string",
          "name": "category",
          "type": "string"
        },
        {
          "indexed": false,
          "internalType": "string",
          "name": "description",
          "type": "string"
        }
      ],
      "name": "DetailsSubmitted",
      "type": "event"
    },
    {
      "inputs": [
        {
          "internalType": "string",
          "name": "_username",
          "type": "string"
        },
        {
          "internalType": "string",
          "name": "_policyId",
          "type": "string"
        },
        {
          "internalType": "uint256",
          "name": "_aadhaarNumber",
          "type": "uint256"
        },
        {
          "internalType": "string",
          "name": "_phoneNumber",
          "type": "string"
        }
      ],
      "name": "submitUserDetails",
      "outputs": [],
      "stateMutability": "nonpayable",
      "type": "function"
    },
    {
      "inputs": [
        {
          "internalType": "string",
          "name": "_nomineeName",
          "type": "string"
        },
        {
          "internalType": "uint256",
          "name": "_nomineeAadhaar",
          "type": "uint256"
        },
        {
          "internalType": "string",
          "name": "_nomineePhone",
          "type": "string"
        }
      ],
      "name": "submitNomineeDetails",
      "outputs": [],
      "stateMutability": "nonpayable",
      "type": "function"
    },
    {
      "inputs": [
        {
          "internalType": "string",
          "name": "_bankName",
          "type": "string"
        },
        {
          "internalType": "string",
          "name": "_accountNumber",
          "type": "string"
        },
        {
          "internalType": "string",
          "name": "_ifscCode",
          "type": "string"
        }
      ],
      "name": "submitBankDetails",
      "outputs": [],
      "stateMutability": "nonpayable",
      "type": "function"
    },
    {
      "inputs": [
        {
          "internalType": "string",
          "name": "_policyPhotoHash",
          "type": "string"
        },
        {
          "internalType": "string",
          "name": "_reportsHash",
          "type": "string"
        }
      ],
      "name": "submitCertificateDetails",
      "outputs": [],
      "stateMutability": "nonpayable",
      "type": "function"
    },
    {
      "inputs": [
        {
          "internalType": "address",
          "name": "userAddress",
          "type": "address"
        }
      ],
      "name": "getUserDetails",
      "outputs": [
        {
          "components": [
            {
              "internalType": "string",
              "name": "username",
              "type": "string"
            },
            {
              "internalType": "string",
              "name": "policyId",
              "type": "string"
            },
            {
              "internalType": "uint256",
              "name": "aadhaarNumber",
              "type": "uint256"
            },
            {
              "internalType": "string",
              "name": "phoneNumber",
              "type": "string"
            }
          ],
          "internalType": "struct LifeInsurance.UserDetails",
          "name": "",
          "type": "tuple"
        }
      ],
      "stateMutability": "view",
      "type": "function",
      "constant": true
    },
    {
      "inputs": [
        {
          "internalType": "address",
          "name": "userAddress",
          "type": "address"
        }
      ],
      "name": "getNomineeDetails",
      "outputs": [
        {
          "components": [
            {
              "internalType": "string",
              "name": "nomineeName",
              "type": "string"
            },
            {
              "internalType": "uint256",
              "name": "nomineeAadhaar",
              "type": "uint256"
            },
            {
              "internalType": "string",
              "name": "nomineePhone",
              "type": "string"
            }
          ],
          "internalType": "struct LifeInsurance.NomineeDetails",
          "name": "",
          "type": "tuple"
        }
      ],
      "stateMutability": "view",
      "type": "function",
      "constant": true
    },
    {
      "inputs": [
        {
          "internalType": "address",
          "name": "userAddress",
          "type": "address"
        }
      ],
      "name": "getBankDetails",
      "outputs": [
        {
          "components": [
            {
              "internalType": "string",
              "name": "bankName",
              "type": "string"
            },
            {
              "internalType": "string",
              "name": "accountNumber",
              "type": "string"
            },
            {
              "internalType": "string",
              "name": "ifscCode",
              "type": "string"
            }
          ],
          "internalType": "struct LifeInsurance.BankDetails",
          "name": "",
          "type": "tuple"
        }
      ],
      "stateMutability": "view",
      "type": "function",
      "constant": true
    },
    {
      "inputs": [
        {
          "internalType": "address",
          "name": "userAddress",
          "type": "address"
        }
      ],
      "name": "getCertificateDetails",
      "outputs": [
        {
          "components": [
            {
              "internalType": "string",
              "name": "policyPhotoHash",
              "type": "string"
            },
            {
              "internalType": "string",
              "name": "reportsHash",
              "type": "string"
            }
          ],
          "internalType": "struct LifeInsurance.CertificateDetails",
          "name": "",
          "type": "tuple"
        }
      ],
      "stateMutability": "view",
      "type": "function",
      "constant": true
    }
  ],
  "bytecode": "0x608060405234801561001057600080fd5b50611d60806100206000396000f3fe608060405234801561001057600080fd5b50600436106100885760003560e01c80636ea30bbc1161005b5780636ea30bbc146101395780638ffcb7a814610155578063a3c19d5f14610171578063cc3d967b1461018d57610088565b806315101e021461008d57806316e36204146100bd57806335640560146100ed5780634950956e14610109575b600080fd5b6100a760048036038101906100a29190610f57565b6101bd565b6040516100b49190611072565b60405180910390f35b6100d760048036038101906100d29190610f57565b61043e565b6040516100e491906110d8565b60405180910390f35b6101076004803603810190610102919061122f565b61062d565b005b610123600480360381019061011e9190610f57565b610702565b6040516101309190611317565b60405180910390f35b610153600480360381019061014e9190611365565b6108fb565b005b61016f600480360381019061016a9190611420565b6109fe565b005b61018b600480360381019061018691906114c7565b610af0565b005b6101a760048036038101906101a29190610f57565b610bd6565b6040516101b491906115c3565b60405180910390f35b6101c5610e61565b813373ffffffffffffffffffffffffffffffffffffffff168173ffffffffffffffffffffffffffffffffffffffff1614610234576040517f08c379a000000000000000000000000000000000000000000000000000000000815260040161022b90611668565b60405180910390fd5b6000808473ffffffffffffffffffffffffffffffffffffffff1673ffffffffffffffffffffffffffffffffffffffff168152602001908152602001600020600701604051806060016040529081600082018054610290906116b7565b80601f01602080910402602001604051908101604052809291908181526020018280546102bc906116b7565b80156103095780601f106102de57610100808354040283529160200191610309565b820191906000526020600020905b8154815290600101906020018083116102ec57829003601f168201915b50505050508152602001600182018054610322906116b7565b80601f016020809104026020016040519081016040528092919081815260200182805461034e906116b7565b801561039b5780601f106103705761010080835404028352916020019161039b565b820191906000526020600020905b81548152906001019060200180831161037e57829003601f168201915b505050505081526020016002820180546103b4906116b7565b80601f01602080910402602001604051908101604052809291908181526020018280546103e0906116b7565b801561042d5780601f106104025761010080835404028352916020019161042d565b820191906000526020600020905b81548152906001019060200180831161041057829003601f168201915b505050505081525050915050919050565b610446610e82565b813373ffffffffffffffffffffffffffffffffffffffff168173ffffffffffffffffffffffffffffffffffffffff16146104b5576040517f08c379a00000000000000000000000000000000000000000000000000000000081526004016104ac90611668565b60405180910390fd5b6000808473ffffffffffffffffffffffffffffffffffffffff1673ffffffffffffffffffffffffffffffffffffffff168152602001908152602001600020600a01604051806040016040529081600082018054610511906116b7565b80601f016020809104026020016040519081016040528092919081815260200182805461053d906116b7565b801561058a5780601f1061055f5761010080835404028352916020019161058a565b820191906000526020600020905b81548152906001019060200180831161056d57829003601f168201915b505050505081526020016001820180546105a3906116b7565b80601f01602080910402602001604051908101604052809291908181526020018280546105cf906116b7565b801561061c5780601f106105f15761010080835404028352916020019161061c565b820191906000526020600020905b8154815290600101906020018083116105ff57829003601f168201915b505050505081525050915050919050565b6040518060400160405280838152602001828152506000803373ffffffffffffffffffffffffffffffffffffffff1673ffffffffffffffffffffffffffffffffffffffff168152602001908152602001600020600a0160008201518160000190816106989190611894565b5060208201518160010190816106ae9190611894565b509050503373ffffffffffffffffffffffffffffffffffffffff167fc3d0cea7703ed50a4b3bfa3ec6a19e9e186d4caea8e774ac9e38a1e53c7c661e6040516106f690611a24565b60405180910390a25050565b61070a610e9c565b813373ffffffffffffffffffffffffffffffffffffffff168173ffffffffffffffffffffffffffffffffffffffff1614610779576040517f08c379a000000000000000000000000000000000000000000000000000000000815260040161077090611668565b60405180910390fd5b6000808473ffffffffffffffffffffffffffffffffffffffff1673ffffffffffffffffffffffffffffffffffffffff1681526020019081526020016000206004016040518060600160405290816000820180546107d5906116b7565b80601f0160208091040260200160405190810160405280929190818152602001828054610801906116b7565b801561084e5780601f106108235761010080835404028352916020019161084e565b820191906000526020600020905b81548152906001019060200180831161083157829003601f168201915b5050505050815260200160018201548152602001600282018054610871906116b7565b80601f016020809104026020016040519081016040528092919081815260200182805461089d906116b7565b80156108ea5780601f106108bf576101008083540402835291602001916108ea565b820191906000526020600020905b8154815290600101906020018083116108cd57829003601f168201915b505050505081525050915050919050565b6040518060800160405280858152602001848152602001838152602001828152506000803373ffffffffffffffffffffffffffffffffffffffff1673ffffffffffffffffffffffffffffffffffffffff16815260200190815260200160002060000160008201518160000190816109729190611894565b5060208201518160010190816109889190611894565b506040820151816002015560608201518160030190816109a89190611894565b509050503373ffffffffffffffffffffffffffffffffffffffff167fc3d0cea7703ed50a4b3bfa3ec6a19e9e186d4caea8e774ac9e38a1e53c7c661e6040516109f090611b15565b60405180910390a250505050565b6040518060600160405280848152602001838152602001828152506000803373ffffffffffffffffffffffffffffffffffffffff1673ffffffffffffffffffffffffffffffffffffffff1681526020019081526020016000206007016000820151816000019081610a6f9190611894565b506020820151816001019081610a859190611894565b506040820151816002019081610a9b9190611894565b509050503373ffffffffffffffffffffffffffffffffffffffff167fc3d0cea7703ed50a4b3bfa3ec6a19e9e186d4caea8e774ac9e38a1e53c7c661e604051610ae390611c06565b60405180910390a2505050565b6040518060600160405280848152602001838152602001828152506000803373ffffffffffffffffffffffffffffffffffffffff1673ffffffffffffffffffffffffffffffffffffffff1681526020019081526020016000206004016000820151816000019081610b619190611894565b50602082015181600101556040820151816002019081610b819190611894565b509050503373ffffffffffffffffffffffffffffffffffffffff167fc3d0cea7703ed50a4b3bfa3ec6a19e9e186d4caea8e774ac9e38a1e53c7c661e604051610bc990611cf7565b60405180910390a2505050565b610bde610ebd565b813373ffffffffffffffffffffffffffffffffffffffff168173ffffffffffffffffffffffffffffffffffffffff1614610c4d576040517f08c379a0000000000000000000000000000000000000000000000000000000008152600401610c4490611668565b60405180910390fd5b6000808473ffffffffffffffffffffffffffffffffffffffff1673ffffffffffffffffffffffffffffffffffffffff168152602001908152602001600020600001604051806080016040529081600082018054610ca9906116b7565b80601f0160208091040260200160405190810160405280929190818152602001828054610cd5906116b7565b8015610d225780601f10610cf757610100808354040283529160200191610d22565b820191906000526020600020905b815481529060010190602001808311610d0557829003601f168201915b50505050508152602001600182018054610d3b906116b7565b80601f0160208091040260200160405190810160405280929190818152602001828054610d67906116b7565b8015610db45780601f10610d8957610100808354040283529160200191610db4565b820191906000526020600020905b815481529060010190602001808311610d9757829003601f168201915b5050505050815260200160028201548152602001600382018054610dd7906116b7565b80601f0160208091040260200160405190810160405280929190818152602001828054610e03906116b7565b8015610e505780601f10610e2557610100808354040283529160200191610e50565b820191906000526020600020905b815481529060010190602001808311610e3357829003601f168201915b505050505081525050915050919050565b60405180606001604052806060815260200160608152602001606081525090565b604051806040016040528060608152602001606081525090565b60405180606001604052806060815260200160008152602001606081525090565b6040518060800160405280606081526020016060815260200160008152602001606081525090565b6000604051905090565b600080fd5b600080fd5b600073ffffffffffffffffffffffffffffffffffffffff82169050919050565b6000610f2482610ef9565b9050919050565b610f3481610f19565b8114610f3f57600080fd5b50565b600081359050610f5181610f2b565b92915050565b600060208284031215610f6d57610f6c610eef565b5b6000610f7b84828501610f42565b91505092915050565b600081519050919050565b600082825260208201905092915050565b60005b83811015610fbe578082015181840152602081019050610fa3565b60008484015250505050565b6000601f19601f8301169050919050565b6000610fe682610f84565b610ff08185610f8f565b9350611000818560208601610fa0565b61100981610fca565b840191505092915050565b600060608301600083015184820360008601526110318282610fdb565b9150506020830151848203602086015261104b8282610fdb565b915050604083015184820360408601526110658282610fdb565b9150508091505092915050565b6000602082019050818103600083015261108c8184611014565b905092915050565b600060408301600083015184820360008601526110b18282610fdb565b915050602083015184820360208601526110cb8282610fdb565b9150508091505092915050565b600060208201905081810360008301526110f28184611094565b905092915050565b600080fd5b600080fd5b7f4e487b7100000000000000000000000000000000000000000000000000000000600052604160045260246000fd5b61113c82610fca565b810181811067ffffffffffffffff8211171561115b5761115a611104565b5b80604052505050565b600061116e610ee5565b905061117a8282611133565b919050565b600067ffffffffffffffff82111561119a57611199611104565b5b6111a382610fca565b9050602081019050919050565b82818337600083830152505050565b60006111d26111cd8461117f565b611164565b9050828152602081018484840111156111ee576111ed6110ff565b5b6111f98482856111b0565b509392505050565b600082601f830112611216576112156110fa565b5b81356112268482602086016111bf565b91505092915050565b6000806040838503121561124657611245610eef565b5b600083013567ffffffffffffffff81111561126457611263610ef4565b5b61127085828601611201565b925050602083013567ffffffffffffffff81111561129157611290610ef4565b5b61129d85828601611201565b9150509250929050565b6000819050919050565b6112ba816112a7565b82525050565b600060608301600083015184820360008601526112dd8282610fdb565b91505060208301516112f260208601826112b1565b506040830151848203604086015261130a8282610fdb565b9150508091505092915050565b6000602082019050818103600083015261133181846112c0565b905092915050565b611342816112a7565b811461134d57600080fd5b50565b60008135905061135f81611339565b92915050565b6000806000806080858703121561137f5761137e610eef565b5b600085013567ffffffffffffffff81111561139d5761139c610ef4565b5b6113a987828801611201565b945050602085013567ffffffffffffffff8111156113ca576113c9610ef4565b5b6113d687828801611201565b93505060406113e787828801611350565b925050606085013567ffffffffffffffff81111561140857611407610ef4565b5b61141487828801611201565b91505092959194509250565b60008060006060848603121561143957611438610eef565b5b600084013567ffffffffffffffff81111561145757611456610ef4565b5b61146386828701611201565b935050602084013567ffffffffffffffff81111561148457611483610ef4565b5b61149086828701611201565b925050604084013567ffffffffffffffff8111156114b1576114b0610ef4565b5b6114bd86828701611201565b9150509250925092565b6000806000606084860312156114e0576114df610eef565b5b600084013567ffffffffffffffff8111156114fe576114fd610ef4565b5b61150a86828701611201565b935050602061151b86828701611350565b925050604084013567ffffffffffffffff81111561153c5761153b610ef4565b5b61154886828701611201565b9150509250925092565b6000608083016000830151848203600086015261156f8282610fdb565b915050602083015184820360208601526115898282610fdb565b915050604083015161159e60408601826112b1565b50606083015184820360608601526115b68282610fdb565b9150508091505092915050565b600060208201905081810360008301526115dd8184611552565b905092915050565b600082825260208201905092915050565b7f556e617574686f72697a65643a20596f752063616e206f6e6c7920757064617460008201527f6520796f7572206f776e207265636f7264732e00000000000000000000000000602082015250565b60006116526033836115e5565b915061165d826115f6565b604082019050919050565b6000602082019050818103600083015261168181611645565b9050919050565b7f4e487b7100000000000000000000000000000000000000000000000000000000600052602260045260246000fd5b600060028204905060018216806116cf57607f821691505b6020821081036116e2576116e1611688565b5b50919050565b60008190508160005260206000209050919050565b60006020601f8301049050919050565b600082821b905092915050565b60006008830261174a7fffffffffffffffffffffffffffffffffffffffffffffffffffffffffffffffff8261170d565b611754868361170d565b95508019841693508086168417925050509392505050565b6000819050919050565b600061179161178c611787846112a7565b61176c565b6112a7565b9050919050565b6000819050919050565b6117ab83611776565b6117bf6117b782611798565b84845461171a565b825550505050565b600090565b6117d46117c7565b6117df8184846117a2565b505050565b5b81811015611803576117f86000826117cc565b6001810190506117e5565b5050565b601f82111561184857611819816116e8565b611822846116fd565b81016020851015611831578190505b61184561183d856116fd565b8301826117e4565b50505b505050565b600082821c905092915050565b600061186b6000198460080261184d565b1980831691505092915050565b6000611884838361185a565b9150826002028217905092915050565b61189d82610f84565b67ffffffffffffffff8111156118b6576118b5611104565b5b6118c082546116b7565b6118cb828285611807565b600060209050601f8311600181146118fe57600084156118ec578287015190505b6118f68582611878565b86555061195e565b601f19841661190c866116e8565b60005b828110156119345784890151825560018201915060208501945060208101905061190f565b86831015611951578489015161194d601f89168261185a565b8355505b6001600288020188555050505b505050505050565b7f4365727469666963617465000000000000000000000000000000000000000000600082015250565b600061199c600b836115e5565b91506119a782611966565b602082019050919050565b7f43657274696669636174652064657461696c732075706461746564207375636360008201527f65737366756c6c792e0000000000000000000000000000000000000000000000602082015250565b6000611a0e6029836115e5565b9150611a19826119b2565b604082019050919050565b60006040820190508181036000830152611a3d8161198f565b90508181036020830152611a5081611a01565b9050919050565b7f5573657200000000000000000000000000000000000000000000000000000000600082015250565b6000611a8d6004836115e5565b9150611a9882611a57565b602082019050919050565b7f557365722064657461696c732075706461746564207375636365737366756c6c60008201527f792e000000000000000000000000000000000000000000000000000000000000602082015250565b6000611aff6022836115e5565b9150611b0a82611aa3565b604082019050919050565b60006040820190508181036000830152611b2e81611a80565b90508181036020830152611b4181611af2565b9050919050565b7f42616e6b00000000000000000000000000000000000000000000000000000000600082015250565b6000611b7e6004836115e5565b9150611b8982611b48565b602082019050919050565b7f42616e6b2064657461696c732075706461746564207375636365737366756c6c60008201527f792e000000000000000000000000000000000000000000000000000000000000602082015250565b6000611bf06022836115e5565b9150611bfb82611b94565b604082019050919050565b60006040820190508181036000830152611c1f81611b71565b90508181036020830152611c3281611be3565b9050919050565b7f4e6f6d696e656500000000000000000000000000000000000000000000000000600082015250565b6000611c6f6007836115e5565b9150611c7a82611c39565b602082019050919050565b7f4e6f6d696e65652064657461696c73207570646174656420737563636573736660008201527f756c6c792e000000000000000000000000000000000000000000000000000000602082015250565b6000611ce16025836115e5565b9150611cec82611c85565b604082019050919050565b60006040820190508181036000830152611d1081611c62565b90508181036020830152611d2381611cd4565b905091905056fea2646970667358221220bf983394ecb979da165048204915180838d780e486a872ea4a23b1e102123b9164736f6c63430008130033",
  "immutableReferences": {},
  "source": "// SPDX-License-Identifier: MIT\r\npragma solidity ^0.8.0;\r\n\r\ncontract LifeInsurance {\r\n\r\n    struct UserDetails {\r\n        string username;\r\n        string policyId;\r\n        uint256 aadhaarNumber;\r\n        string phoneNumber;\r\n    }\r\n\r\n    struct NomineeDetails {\r\n        string nomineeName;\r\n        uint256 nomineeAadhaar;\r\n        string nomineePhone;\r\n    }\r\n\r\n    struct BankDetails {\r\n        string bankName;\r\n        string accountNumber;\r\n        string ifscCode;\r\n    }\r\n\r\n    struct CertificateDetails {\r\n        string policyPhotoHash; // Use hash of the file for storage efficiency\r\n        string reportsHash;\r\n    }\r\n\r\n    struct InsuranceRecord {\r\n        UserDetails userDetails;\r\n        NomineeDetails nomineeDetails;\r\n        BankDetails bankDetails;\r\n        CertificateDetails certificateDetails;\r\n    }\r\n\r\n    mapping(address => InsuranceRecord) private insuranceRecords;\r\n\r\n    event DetailsSubmitted(\r\n        address indexed userAddress,\r\n        string category, // \"User\", \"Nominee\", \"Bank\", \"Certificate\"\r\n        string description\r\n    );\r\n\r\n    modifier onlyUser(address userAddress) {\r\n        require(userAddress == msg.sender, \"Unauthorized: You can only update your own records.\");\r\n        _;\r\n    }\r\n\r\n    // Function to store user details\r\n    function submitUserDetails(\r\n        string memory _username,\r\n        string memory _policyId,\r\n        uint256 _aadhaarNumber,\r\n        string memory _phoneNumber\r\n    ) public {\r\n        insuranceRecords[msg.sender].userDetails = UserDetails(_username, _policyId, _aadhaarNumber, _phoneNumber);\r\n        emit DetailsSubmitted(msg.sender, \"User\", \"User details updated successfully.\");\r\n    }\r\n\r\n    // Function to store nominee details\r\n    function submitNomineeDetails(\r\n        string memory _nomineeName,\r\n        uint256 _nomineeAadhaar,\r\n        string memory _nomineePhone\r\n    ) public {\r\n        insuranceRecords[msg.sender].nomineeDetails = NomineeDetails(_nomineeName, _nomineeAadhaar, _nomineePhone);\r\n        emit DetailsSubmitted(msg.sender, \"Nominee\", \"Nominee details updated successfully.\");\r\n    }\r\n\r\n    // Function to store bank details\r\n    function submitBankDetails(\r\n        string memory _bankName,\r\n        string memory _accountNumber,\r\n        string memory _ifscCode\r\n    ) public {\r\n        insuranceRecords[msg.sender].bankDetails = BankDetails(_bankName, _accountNumber, _ifscCode);\r\n        emit DetailsSubmitted(msg.sender, \"Bank\", \"Bank details updated successfully.\");\r\n    }\r\n\r\n    // Function to store certificate details (hashes for efficiency)\r\n    function submitCertificateDetails(\r\n        string memory _policyPhotoHash,\r\n        string memory _reportsHash\r\n    ) public {\r\n        insuranceRecords[msg.sender].certificateDetails = CertificateDetails(_policyPhotoHash, _reportsHash);\r\n        emit DetailsSubmitted(msg.sender, \"Certificate\", \"Certificate details updated successfully.\");\r\n    }\r\n\r\n    // Function to retrieve user details\r\n    function getUserDetails(address userAddress)\r\n        public\r\n        view\r\n        onlyUser(userAddress)\r\n        returns (UserDetails memory)\r\n    {\r\n        return insuranceRecords[userAddress].userDetails;\r\n    }\r\n\r\n    // Function to retrieve nominee details\r\n    function getNomineeDetails(address userAddress)\r\n        public\r\n        view\r\n        onlyUser(userAddress)\r\n        returns (NomineeDetails memory)\r\n    {\r\n        return insuranceRecords[userAddress].nomineeDetails;\r\n    }\r\n\r\n    // Function to retrieve bank details\r\n    function getBankDetails(address userAddress)\r\n        public\r\n        view\r\n        onlyUser(userAddress)\r\n        returns (BankDetails memory)\r\n    {\r\n        return insuranceRecords[userAddress].bankDetails;\r\n    }\r\n\r\n    // Function to retrieve certificate details\r\n    function getCertificateDetails(address userAddress)\r\n        public\r\n        view\r\n        onlyUser(userAddress)\r\n        returns (CertificateDetails memory)\r\n    {\r\n        return insuranceRecords[userAddress].certificateDetails;\r\n    }\r\n}\r\n",
  "sourcePath": "C:\\Users\\Sudheer\\Desktop\\Seamless-Insurance-Claims-Processing-KITS-IT-Final\\contracts\\LifeInsurance.sol",
  "compiler": {
    "name": "solc",
    "version": "0.8.19+commit.7dd6d404.Emscripten.clang"
  },
  "schemaVersion": "3.4.16",
  "updatedAt": "2024-12-31T09:28:34.614Z",
  "networkType": "ethereum",
  "devdoc": {
    "kind": "dev",
    "methods": {},
    "version": 1
  },
  "userdoc": {
    "kind": "user",
    "methods": {},
    "version": 1
  }
}