{
  "contractName": "RoleBasedAuth",
  "abi": [
    {
      "inputs": [],
      "stateMutability": "nonpayable",
      "type": "constructor"
    },
    {
      "inputs": [],
      "name": "admin",
      "outputs": [
        {
          "internalType": "address",
          "name": "",
          "type": "address"
        }
      ],
      "stateMutability": "view",
      "type": "function",
      "constant": true
    },
    {
      "inputs": [
        {
          "internalType": "address",
          "name": "",
          "type": "address"
        }
      ],
      "name": "users",
      "outputs": [
        {
          "internalType": "string",
          "name": "username",
          "type": "string"
        },
        {
          "internalType": "string",
          "name": "email",
          "type": "string"
        },
        {
          "internalType": "string",
          "name": "role",
          "type": "string"
        },
        {
          "internalType": "bool",
          "name": "exists",
          "type": "bool"
        }
      ],
      "stateMutability": "view",
      "type": "function",
      "constant": true
    },
    {
      "inputs": [
        {
          "internalType": "address",
          "name": "_userAddress",
          "type": "address"
        },
        {
          "internalType": "string",
          "name": "_username",
          "type": "string"
        },
        {
          "internalType": "string",
          "name": "_email",
          "type": "string"
        },
        {
          "internalType": "string",
          "name": "_role",
          "type": "string"
        }
      ],
      "name": "registerUser",
      "outputs": [
        {
          "internalType": "bool",
          "name": "",
          "type": "bool"
        }
      ],
      "stateMutability": "nonpayable",
      "type": "function"
    },
    {
      "inputs": [
        {
          "internalType": "address",
          "name": "_userAddress",
          "type": "address"
        }
      ],
      "name": "loginUser",
      "outputs": [
        {
          "internalType": "string",
          "name": "",
          "type": "string"
        },
        {
          "internalType": "string",
          "name": "",
          "type": "string"
        }
      ],
      "stateMutability": "view",
      "type": "function",
      "constant": true
    },
    {
      "inputs": [
        {
          "internalType": "address",
          "name": "_userAddress",
          "type": "address"
        }
      ],
      "name": "getUserRole",
      "outputs": [
        {
          "internalType": "string",
          "name": "",
          "type": "string"
        }
      ],
      "stateMutability": "view",
      "type": "function",
      "constant": true
    },
    {
      "inputs": [
        {
          "internalType": "address",
          "name": "_userAddress",
          "type": "address"
        },
        {
          "internalType": "string",
          "name": "_username",
          "type": "string"
        },
        {
          "internalType": "string",
          "name": "_email",
          "type": "string"
        },
        {
          "internalType": "string",
          "name": "_role",
          "type": "string"
        }
      ],
      "name": "updateUser",
      "outputs": [
        {
          "internalType": "bool",
          "name": "",
          "type": "bool"
        }
      ],
      "stateMutability": "nonpayable",
      "type": "function"
    }
  ],
  "bytecode": "0x608060405234801561001057600080fd5b5033600160006101000a81548173ffffffffffffffffffffffffffffffffffffffff021916908373ffffffffffffffffffffffffffffffffffffffff1602179055506113aa806100616000396000f3fe608060405234801561001057600080fd5b50600436106100625760003560e01c80630da4578b1461006757806327820851146100975780636bbeb9de146100c7578063a87430ba146100f8578063f851a4401461012b578063fe69c29614610149575b600080fd5b610081600480360381019061007c9190610ca8565b610179565b60405161008e9190610d7e565b60405180910390f35b6100b160048036038101906100ac9190610d99565b61036c565b6040516100be9190610e45565b60405180910390f35b6100e160048036038101906100dc9190610d99565b6104cd565b6040516100ef929190610e67565b60405180910390f35b610112600480360381019061010d9190610d99565b610701565b6040516101229493929190610e9e565b60405180910390f35b6101336108d6565b6040516101409190610f07565b60405180910390f35b610163600480360381019061015e9190610ca8565b6108fc565b6040516101709190610d7e565b60405180910390f35b6000600160009054906101000a900473ffffffffffffffffffffffffffffffffffffffff1673ffffffffffffffffffffffffffffffffffffffff163373ffffffffffffffffffffffffffffffffffffffff161461020b576040517f08c379a000000000000000000000000000000000000000000000000000000000815260040161020290610f94565b60405180910390fd5b6000808673ffffffffffffffffffffffffffffffffffffffff1673ffffffffffffffffffffffffffffffffffffffff16815260200190815260200160002060030160009054906101000a900460ff16610299576040517f08c379a000000000000000000000000000000000000000000000000000000000815260040161029090611000565b60405180910390fd5b6040518060800160405280858152602001848152602001838152602001600115158152506000808773ffffffffffffffffffffffffffffffffffffffff1673ffffffffffffffffffffffffffffffffffffffff16815260200190815260200160002060008201518160000190816103109190611236565b5060208201518160010190816103269190611236565b50604082015181600201908161033c9190611236565b5060608201518160030160006101000a81548160ff02191690831515021790555090505060019050949350505050565b60606000808373ffffffffffffffffffffffffffffffffffffffff1673ffffffffffffffffffffffffffffffffffffffff16815260200190815260200160002060030160009054906101000a900460ff166103fc576040517f08c379a00000000000000000000000000000000000000000000000000000000081526004016103f390611000565b60405180910390fd5b6000808373ffffffffffffffffffffffffffffffffffffffff1673ffffffffffffffffffffffffffffffffffffffff16815260200190815260200160002060020180546104489061104f565b80601f01602080910402602001604051908101604052809291908181526020018280546104749061104f565b80156104c15780601f10610496576101008083540402835291602001916104c1565b820191906000526020600020905b8154815290600101906020018083116104a457829003601f168201915b50505050509050919050565b6060806000808473ffffffffffffffffffffffffffffffffffffffff1673ffffffffffffffffffffffffffffffffffffffff16815260200190815260200160002060030160009054906101000a900460ff1661055e576040517f08c379a000000000000000000000000000000000000000000000000000000000815260040161055590611000565b60405180910390fd5b6000808473ffffffffffffffffffffffffffffffffffffffff1673ffffffffffffffffffffffffffffffffffffffff1681526020019081526020016000206000016000808573ffffffffffffffffffffffffffffffffffffffff1673ffffffffffffffffffffffffffffffffffffffff1681526020019081526020016000206002018180546105ec9061104f565b80601f01602080910402602001604051908101604052809291908181526020018280546106189061104f565b80156106655780601f1061063a57610100808354040283529160200191610665565b820191906000526020600020905b81548152906001019060200180831161064857829003601f168201915b505050505091508080546106789061104f565b80601f01602080910402602001604051908101604052809291908181526020018280546106a49061104f565b80156106f15780601f106106c6576101008083540402835291602001916106f1565b820191906000526020600020905b8154815290600101906020018083116106d457829003601f168201915b5050505050905091509150915091565b60006020528060005260406000206000915090508060000180546107249061104f565b80601f01602080910402602001604051908101604052809291908181526020018280546107509061104f565b801561079d5780601f106107725761010080835404028352916020019161079d565b820191906000526020600020905b81548152906001019060200180831161078057829003601f168201915b5050505050908060010180546107b29061104f565b80601f01602080910402602001604051908101604052809291908181526020018280546107de9061104f565b801561082b5780601f106108005761010080835404028352916020019161082b565b820191906000526020600020905b81548152906001019060200180831161080e57829003601f168201915b5050505050908060020180546108409061104f565b80601f016020809104026020016040519081016040528092919081815260200182805461086c9061104f565b80156108b95780601f1061088e576101008083540402835291602001916108b9565b820191906000526020600020905b81548152906001019060200180831161089c57829003601f168201915b5050505050908060030160009054906101000a900460ff16905084565b600160009054906101000a900473ffffffffffffffffffffffffffffffffffffffff1681565b6000600160009054906101000a900473ffffffffffffffffffffffffffffffffffffffff1673ffffffffffffffffffffffffffffffffffffffff163373ffffffffffffffffffffffffffffffffffffffff161461098e576040517f08c379a000000000000000000000000000000000000000000000000000000000815260040161098590610f94565b60405180910390fd5b6000808673ffffffffffffffffffffffffffffffffffffffff1673ffffffffffffffffffffffffffffffffffffffff16815260200190815260200160002060030160009054906101000a900460ff1615610a1d576040517f08c379a0000000000000000000000000000000000000000000000000000000008152600401610a1490611354565b60405180910390fd5b6040518060800160405280858152602001848152602001838152602001600115158152506000808773ffffffffffffffffffffffffffffffffffffffff1673ffffffffffffffffffffffffffffffffffffffff1681526020019081526020016000206000820151816000019081610a949190611236565b506020820151816001019081610aaa9190611236565b506040820151816002019081610ac09190611236565b5060608201518160030160006101000a81548160ff02191690831515021790555090505060019050949350505050565b6000604051905090565b600080fd5b600080fd5b600073ffffffffffffffffffffffffffffffffffffffff82169050919050565b6000610b2f82610b04565b9050919050565b610b3f81610b24565b8114610b4a57600080fd5b50565b600081359050610b5c81610b36565b92915050565b600080fd5b600080fd5b6000601f19601f8301169050919050565b7f4e487b7100000000000000000000000000000000000000000000000000000000600052604160045260246000fd5b610bb582610b6c565b810181811067ffffffffffffffff82111715610bd457610bd3610b7d565b5b80604052505050565b6000610be7610af0565b9050610bf38282610bac565b919050565b600067ffffffffffffffff821115610c1357610c12610b7d565b5b610c1c82610b6c565b9050602081019050919050565b82818337600083830152505050565b6000610c4b610c4684610bf8565b610bdd565b905082815260208101848484011115610c6757610c66610b67565b5b610c72848285610c29565b509392505050565b600082601f830112610c8f57610c8e610b62565b5b8135610c9f848260208601610c38565b91505092915050565b60008060008060808587031215610cc257610cc1610afa565b5b6000610cd087828801610b4d565b945050602085013567ffffffffffffffff811115610cf157610cf0610aff565b5b610cfd87828801610c7a565b935050604085013567ffffffffffffffff811115610d1e57610d1d610aff565b5b610d2a87828801610c7a565b925050606085013567ffffffffffffffff811115610d4b57610d4a610aff565b5b610d5787828801610c7a565b91505092959194509250565b60008115159050919050565b610d7881610d63565b82525050565b6000602082019050610d936000830184610d6f565b92915050565b600060208284031215610daf57610dae610afa565b5b6000610dbd84828501610b4d565b91505092915050565b600081519050919050565b600082825260208201905092915050565b60005b83811015610e00578082015181840152602081019050610de5565b60008484015250505050565b6000610e1782610dc6565b610e218185610dd1565b9350610e31818560208601610de2565b610e3a81610b6c565b840191505092915050565b60006020820190508181036000830152610e5f8184610e0c565b905092915050565b60006040820190508181036000830152610e818185610e0c565b90508181036020830152610e958184610e0c565b90509392505050565b60006080820190508181036000830152610eb88187610e0c565b90508181036020830152610ecc8186610e0c565b90508181036040830152610ee08185610e0c565b9050610eef6060830184610d6f565b95945050505050565b610f0181610b24565b82525050565b6000602082019050610f1c6000830184610ef8565b92915050565b7f4f6e6c792061646d696e2063616e20706572666f726d2074686973206163746960008201527f6f6e000000000000000000000000000000000000000000000000000000000000602082015250565b6000610f7e602283610dd1565b9150610f8982610f22565b604082019050919050565b60006020820190508181036000830152610fad81610f71565b9050919050565b7f5573657220646f6573206e6f7420657869737400000000000000000000000000600082015250565b6000610fea601383610dd1565b9150610ff582610fb4565b602082019050919050565b6000602082019050818103600083015261101981610fdd565b9050919050565b7f4e487b7100000000000000000000000000000000000000000000000000000000600052602260045260246000fd5b6000600282049050600182168061106757607f821691505b60208210810361107a57611079611020565b5b50919050565b60008190508160005260206000209050919050565b60006020601f8301049050919050565b600082821b905092915050565b6000600883026110e27fffffffffffffffffffffffffffffffffffffffffffffffffffffffffffffffff826110a5565b6110ec86836110a5565b95508019841693508086168417925050509392505050565b6000819050919050565b6000819050919050565b600061113361112e61112984611104565b61110e565b611104565b9050919050565b6000819050919050565b61114d83611118565b6111616111598261113a565b8484546110b2565b825550505050565b600090565b611176611169565b611181818484611144565b505050565b5b818110156111a55761119a60008261116e565b600181019050611187565b5050565b601f8211156111ea576111bb81611080565b6111c484611095565b810160208510156111d3578190505b6111e76111df85611095565b830182611186565b50505b505050565b600082821c905092915050565b600061120d600019846008026111ef565b1980831691505092915050565b600061122683836111fc565b9150826002028217905092915050565b61123f82610dc6565b67ffffffffffffffff81111561125857611257610b7d565b5b611262825461104f565b61126d8282856111a9565b600060209050601f8311600181146112a0576000841561128e578287015190505b611298858261121a565b865550611300565b601f1984166112ae86611080565b60005b828110156112d6578489015182556001820191506020850194506020810190506112b1565b868310156112f357848901516112ef601f8916826111fc565b8355505b6001600288020188555050505b505050505050565b7f5573657220616c72656164792065786973747300000000000000000000000000600082015250565b600061133e601383610dd1565b915061134982611308565b602082019050919050565b6000602082019050818103600083015261136d81611331565b905091905056fea2646970667358221220d64a848222f32e469cd36c58b566492d93c693007e5e3a50e5c8579ad34d4cf664736f6c63430008130033",
  "immutableReferences": {},
  "source": "// SPDX-License-Identifier: MIT\npragma solidity 0.8.19;\n\ncontract RoleBasedAuth {\n    struct User {\n        string username;\n        string email;\n        string role;\n        bool exists;\n    }\n\n    mapping(address => User) public users;\n    address public admin;\n\n    constructor() {\n        admin = msg.sender;\n    }\n\n    modifier onlyAdmin() {\n        require(msg.sender == admin, \"Only admin can perform this action\");\n        _;\n    }\n\n    function registerUser(\n        address _userAddress,\n        string memory _username,\n        string memory _email,\n        string memory _role\n    ) public onlyAdmin returns (bool) {\n        require(!users[_userAddress].exists, \"User already exists\");\n        users[_userAddress] = User(_username, _email, _role, true);\n        return true;\n    }\n\n    function loginUser(address _userAddress) public view returns (string memory, string memory) {\n        require(users[_userAddress].exists, \"User does not exist\");\n        return (users[_userAddress].username, users[_userAddress].role);\n    }\n\n    function getUserRole(address _userAddress) public view returns (string memory) {\n        require(users[_userAddress].exists, \"User does not exist\");\n        return users[_userAddress].role;\n    }\n\n    function updateUser(\n        address _userAddress,\n        string memory _username,\n        string memory _email,\n        string memory _role\n    ) public onlyAdmin returns (bool) {\n        require(users[_userAddress].exists, \"User does not exist\");\n        users[_userAddress] = User(_username, _email, _role, true);\n        return true;\n    }\n}\n",
  "sourcePath": "C:\\Users\\Sudheer\\OneDrive\\Desktop\\Seamless-Insurance-Claims-Processing-KITS-IT-Final\\contracts\\RoleBasedAuth.sol",
  "compiler": {
    "name": "solc",
    "version": "0.8.19+commit.7dd6d404.Emscripten.clang"
  },
  "schemaVersion": "3.4.16",
  "updatedAt": "2024-12-30T08:41:25.032Z",
  "networkType": "ethereum",
  "devdoc": {
    "kind": "dev",
    "methods": {},
    "version": 1
  },
  "userdoc": {
    "kind": "user",
    "methods": {},
    "version": 1
  }
}