{
  "contractName": "UserManagement",
  "abi": [
    {
      "anonymous": false,
      "inputs": [
        {
          "indexed": true,
          "internalType": "address",
          "name": "userAddress",
          "type": "address"
        },
        {
          "indexed": false,
          "internalType": "string",
          "name": "username",
          "type": "string"
        },
        {
          "indexed": false,
          "internalType": "string",
          "name": "role",
          "type": "string"
        }
      ],
      "name": "UserRegistered",
      "type": "event"
    },
    {
      "inputs": [
        {
          "internalType": "string",
          "name": "_role",
          "type": "string"
        },
        {
          "internalType": "string",
          "name": "_addressDetails",
          "type": "string"
        },
        {
          "internalType": "string",
          "name": "_username",
          "type": "string"
        },
        {
          "internalType": "string",
          "name": "_email",
          "type": "string"
        },
        {
          "internalType": "string",
          "name": "_password",
          "type": "string"
        }
      ],
      "name": "registerUser",
      "outputs": [],
      "stateMutability": "nonpayable",
      "type": "function"
    },
    {
      "inputs": [
        {
          "internalType": "string",
          "name": "username",
          "type": "string"
        },
        {
          "internalType": "string",
          "name": "password",
          "type": "string"
        }
      ],
      "name": "loginUser",
      "outputs": [
        {
          "internalType": "bool",
          "name": "",
          "type": "bool"
        }
      ],
      "stateMutability": "view",
      "type": "function",
      "constant": true
    },
    {
      "inputs": [],
      "name": "getUserDetails",
      "outputs": [
        {
          "internalType": "string",
          "name": "role",
          "type": "string"
        },
        {
          "internalType": "string",
          "name": "addressDetails",
          "type": "string"
        },
        {
          "internalType": "string",
          "name": "username",
          "type": "string"
        },
        {
          "internalType": "string",
          "name": "email",
          "type": "string"
        }
      ],
      "stateMutability": "view",
      "type": "function",
      "constant": true
    }
  ],
  "bytecode": "0x608060405234801561001057600080fd5b50611398806100206000396000f3fe608060405234801561001057600080fd5b50600436106100415760003560e01c806322ce12e514610046578063942886be14610076578063ac9f0a4014610097575b600080fd5b610060600480360381019061005b91906109d5565b6100b3565b60405161006d9190610a68565b60405180910390f35b61007e6101f7565b60405161008e9493929190610b02565b60405180910390f35b6100b160048036038101906100ac9190610b63565b61054f565b005b6000806000803373ffffffffffffffffffffffffffffffffffffffff1673ffffffffffffffffffffffffffffffffffffffff168152602001908152602001600020600201805461010290610c99565b905011610144576040517f08c379a000000000000000000000000000000000000000000000000000000000815260040161013b90610d16565b60405180910390fd5b6000803373ffffffffffffffffffffffffffffffffffffffff1673ffffffffffffffffffffffffffffffffffffffff16815260200190815260200160002060040154826040516020016101979190610d72565b60405160208183030381529060405280519060200120146101ed576040517f08c379a00000000000000000000000000000000000000000000000000000000081526004016101e490610dd5565b60405180910390fd5b6001905092915050565b60608060608060008060003373ffffffffffffffffffffffffffffffffffffffff1673ffffffffffffffffffffffffffffffffffffffff168152602001908152602001600020600201805461024b90610c99565b90501161028d576040517f08c379a000000000000000000000000000000000000000000000000000000000815260040161028490610d16565b60405180910390fd5b60008060003373ffffffffffffffffffffffffffffffffffffffff1673ffffffffffffffffffffffffffffffffffffffff1681526020019081526020016000206040518060a00160405290816000820180546102e890610c99565b80601f016020809104026020016040519081016040528092919081815260200182805461031490610c99565b80156103615780601f1061033657610100808354040283529160200191610361565b820191906000526020600020905b81548152906001019060200180831161034457829003601f168201915b5050505050815260200160018201805461037a90610c99565b80601f01602080910402602001604051908101604052809291908181526020018280546103a690610c99565b80156103f35780601f106103c8576101008083540402835291602001916103f3565b820191906000526020600020905b8154815290600101906020018083116103d657829003601f168201915b5050505050815260200160028201805461040c90610c99565b80601f016020809104026020016040519081016040528092919081815260200182805461043890610c99565b80156104855780601f1061045a57610100808354040283529160200191610485565b820191906000526020600020905b81548152906001019060200180831161046857829003601f168201915b5050505050815260200160038201805461049e90610c99565b80601f01602080910402602001604051908101604052809291908181526020018280546104ca90610c99565b80156105175780601f106104ec57610100808354040283529160200191610517565b820191906000526020600020905b8154815290600101906020018083116104fa57829003601f168201915b505050505081526020016004820154815250509050806000015181602001518260400151836060015194509450945094505090919293565b60008060003373ffffffffffffffffffffffffffffffffffffffff1673ffffffffffffffffffffffffffffffffffffffff168152602001908152602001600020600201805461059d90610c99565b9050146105df576040517f08c379a00000000000000000000000000000000000000000000000000000000081526004016105d690610e41565b60405180910390fd5b6000855111610623576040517f08c379a000000000000000000000000000000000000000000000000000000000815260040161061a90610ead565b60405180910390fd5b6000845111610667576040517f08c379a000000000000000000000000000000000000000000000000000000000815260040161065e90610f19565b60405180910390fd5b60008351116106ab576040517f08c379a00000000000000000000000000000000000000000000000000000000081526004016106a290610f85565b60405180910390fd5b60008251116106ef576040517f08c379a00000000000000000000000000000000000000000000000000000000081526004016106e690610ff1565b60405180910390fd5b600681511015610734576040517f08c379a000000000000000000000000000000000000000000000000000000000815260040161072b90611083565b60405180910390fd5b6040518060a00160405280868152602001858152602001848152602001838152602001826040516020016107689190610d72565b604051602081830303815290604052805190602001208152506000803373ffffffffffffffffffffffffffffffffffffffff1673ffffffffffffffffffffffffffffffffffffffff16815260200190815260200160002060008201518160000190816107d49190611259565b5060208201518160010190816107ea9190611259565b5060408201518160020190816108009190611259565b5060608201518160030190816108169190611259565b50608082015181600401559050503373ffffffffffffffffffffffffffffffffffffffff167f92822564bab8864c3a47b34e8d23fbce5c46234eb5da261f94087b995ac0f33b848760405161086c92919061132b565b60405180910390a25050505050565b6000604051905090565b600080fd5b600080fd5b600080fd5b600080fd5b6000601f19601f8301169050919050565b7f4e487b7100000000000000000000000000000000000000000000000000000000600052604160045260246000fd5b6108e282610899565b810181811067ffffffffffffffff82111715610901576109006108aa565b5b80604052505050565b600061091461087b565b905061092082826108d9565b919050565b600067ffffffffffffffff8211156109405761093f6108aa565b5b61094982610899565b9050602081019050919050565b82818337600083830152505050565b600061097861097384610925565b61090a565b90508281526020810184848401111561099457610993610894565b5b61099f848285610956565b509392505050565b600082601f8301126109bc576109bb61088f565b5b81356109cc848260208601610965565b91505092915050565b600080604083850312156109ec576109eb610885565b5b600083013567ffffffffffffffff811115610a0a57610a0961088a565b5b610a16858286016109a7565b925050602083013567ffffffffffffffff811115610a3757610a3661088a565b5b610a43858286016109a7565b9150509250929050565b60008115159050919050565b610a6281610a4d565b82525050565b6000602082019050610a7d6000830184610a59565b92915050565b600081519050919050565b600082825260208201905092915050565b60005b83811015610abd578082015181840152602081019050610aa2565b60008484015250505050565b6000610ad482610a83565b610ade8185610a8e565b9350610aee818560208601610a9f565b610af781610899565b840191505092915050565b60006080820190508181036000830152610b1c8187610ac9565b90508181036020830152610b308186610ac9565b90508181036040830152610b448185610ac9565b90508181036060830152610b588184610ac9565b905095945050505050565b600080600080600060a08688031215610b7f57610b7e610885565b5b600086013567ffffffffffffffff811115610b9d57610b9c61088a565b5b610ba9888289016109a7565b955050602086013567ffffffffffffffff811115610bca57610bc961088a565b5b610bd6888289016109a7565b945050604086013567ffffffffffffffff811115610bf757610bf661088a565b5b610c03888289016109a7565b935050606086013567ffffffffffffffff811115610c2457610c2361088a565b5b610c30888289016109a7565b925050608086013567ffffffffffffffff811115610c5157610c5061088a565b5b610c5d888289016109a7565b9150509295509295909350565b7f4e487b7100000000000000000000000000000000000000000000000000000000600052602260045260246000fd5b60006002820490506001821680610cb157607f821691505b602082108103610cc457610cc3610c6a565b5b50919050565b7f55736572206e6f7420726567697374657265642e000000000000000000000000600082015250565b6000610d00601483610a8e565b9150610d0b82610cca565b602082019050919050565b60006020820190508181036000830152610d2f81610cf3565b9050919050565b600081905092915050565b6000610d4c82610a83565b610d568185610d36565b9350610d66818560208601610a9f565b80840191505092915050565b6000610d7e8284610d41565b915081905092915050565b7f496e76616c69642063726564656e7469616c732e000000000000000000000000600082015250565b6000610dbf601483610a8e565b9150610dca82610d89565b602082019050919050565b60006020820190508181036000830152610dee81610db2565b9050919050565b7f5573657220616c726561647920726567697374657265642e0000000000000000600082015250565b6000610e2b601883610a8e565b9150610e3682610df5565b602082019050919050565b60006020820190508181036000830152610e5a81610e1e565b9050919050565b7f526f6c652069732072657175697265642e000000000000000000000000000000600082015250565b6000610e97601183610a8e565b9150610ea282610e61565b602082019050919050565b60006020820190508181036000830152610ec681610e8a565b9050919050565b7f416464726573732069732072657175697265642e000000000000000000000000600082015250565b6000610f03601483610a8e565b9150610f0e82610ecd565b602082019050919050565b60006020820190508181036000830152610f3281610ef6565b9050919050565b7f557365726e616d652069732072657175697265642e0000000000000000000000600082015250565b6000610f6f601583610a8e565b9150610f7a82610f39565b602082019050919050565b60006020820190508181036000830152610f9e81610f62565b9050919050565b7f456d61696c2069732072657175697265642e0000000000000000000000000000600082015250565b6000610fdb601283610a8e565b9150610fe682610fa5565b602082019050919050565b6000602082019050818103600083015261100a81610fce565b9050919050565b7f50617373776f7264206d757374206265206174206c656173742036206368617260008201527f6163746572732e00000000000000000000000000000000000000000000000000602082015250565b600061106d602783610a8e565b915061107882611011565b604082019050919050565b6000602082019050818103600083015261109c81611060565b9050919050565b60008190508160005260206000209050919050565b60006020601f8301049050919050565b600082821b905092915050565b6000600883026111057fffffffffffffffffffffffffffffffffffffffffffffffffffffffffffffffff826110c8565b61110f86836110c8565b95508019841693508086168417925050509392505050565b6000819050919050565b6000819050919050565b600061115661115161114c84611127565b611131565b611127565b9050919050565b6000819050919050565b6111708361113b565b61118461117c8261115d565b8484546110d5565b825550505050565b600090565b61119961118c565b6111a4818484611167565b505050565b5b818110156111c8576111bd600082611191565b6001810190506111aa565b5050565b601f82111561120d576111de816110a3565b6111e7846110b8565b810160208510156111f6578190505b61120a611202856110b8565b8301826111a9565b50505b505050565b600082821c905092915050565b600061123060001984600802611212565b1980831691505092915050565b6000611249838361121f565b9150826002028217905092915050565b61126282610a83565b67ffffffffffffffff81111561127b5761127a6108aa565b5b6112858254610c99565b6112908282856111cc565b600060209050601f8311600181146112c357600084156112b1578287015190505b6112bb858261123d565b865550611323565b601f1984166112d1866110a3565b60005b828110156112f9578489015182556001820191506020850194506020810190506112d4565b868310156113165784890151611312601f89168261121f565b8355505b6001600288020188555050505b505050505050565b600060408201905081810360008301526113458185610ac9565b905081810360208301526113598184610ac9565b9050939250505056fea26469706673582212204e1e2eb1728ca5eaf16be7fe931423803e5a3b8fcfe04437440da07df1ecc91d64736f6c63430008130033",
  "immutableReferences": {},
  "source": "// SPDX-License-Identifier: MIT\r\npragma solidity ^0.8.0;\r\n\r\ncontract UserManagement {\r\n    // Struct to store user information\r\n    struct User {\r\n        string role; // Role of the user (user, hospital, police)\r\n        string addressDetails; // Address of the user\r\n        string username; // Username\r\n        string email; // Email\r\n        bytes32 passwordHash; // Hashed password for security\r\n    }\r\n\r\n    // Mapping to store users by their Ethereum address\r\n    mapping(address => User) private users;\r\n\r\n    // Event for user registration\r\n    event UserRegistered(address indexed userAddress, string username, string role);\r\n\r\n    // Function to register a new user\r\n    function registerUser(\r\n        string memory _role,\r\n        string memory _addressDetails,\r\n        string memory _username,\r\n        string memory _email,\r\n        string memory _password\r\n    ) public {\r\n        require(bytes(users[msg.sender].username).length == 0, \"User already registered.\");\r\n        require(bytes(_role).length > 0, \"Role is required.\");\r\n        require(bytes(_addressDetails).length > 0, \"Address is required.\");\r\n        require(bytes(_username).length > 0, \"Username is required.\");\r\n        require(bytes(_email).length > 0, \"Email is required.\");\r\n        require(bytes(_password).length >= 6, \"Password must be at least 6 characters.\");\r\n\r\n        // Store user data\r\n        users[msg.sender] = User({\r\n            role: _role,\r\n            addressDetails: _addressDetails,\r\n            username: _username,\r\n            email: _email,\r\n            passwordHash: keccak256(abi.encodePacked(_password)) // Hash the password\r\n        });\r\n\r\n        emit UserRegistered(msg.sender, _username, _role);\r\n    }\r\n\r\n    // Function to login a user\r\n    function loginUser(string memory username, string memory password) public view returns (bool) {\r\n    require(bytes(users[msg.sender].username).length > 0, \"User not registered.\");\r\n    require(\r\n        keccak256(abi.encodePacked(password)) == users[msg.sender].passwordHash,\r\n        \"Invalid credentials.\"\r\n    );\r\n    return true; // Login successful\r\n}\r\n\r\n    // Function to retrieve user details\r\n    function getUserDetails() public view returns (string memory role, string memory addressDetails, string memory username, string memory email) {\r\n        require(bytes(users[msg.sender].username).length > 0, \"User not registered.\");\r\n        User memory user = users[msg.sender];\r\n        return (user.role, user.addressDetails, user.username, user.email);\r\n    }\r\n}\r\n",
  "sourcePath": "C:\\Users\\Sudheer\\Desktop\\Seamless-Insurance-Claims-Processing-KITS-IT-Final\\contracts\\UserManagement.sol",
  "compiler": {
    "name": "solc",
    "version": "0.8.19+commit.7dd6d404.Emscripten.clang"
  },
  "schemaVersion": "3.4.16",
  "updatedAt": "2024-12-31T05:28:54.376Z",
  "networkType": "ethereum",
  "devdoc": {
    "kind": "dev",
    "methods": {},
    "version": 1
  },
  "userdoc": {
    "kind": "user",
    "methods": {},
    "version": 1
  }
}